{
  "contractName": "BlackJack",
  "abi": [
    {
      "inputs": [
        {
          "internalType": "address",
          "name": "JHTokenDEXAddress",
          "type": "address"
        }
      ],
      "stateMutability": "nonpayable",
      "type": "constructor"
    },
    {
      "anonymous": false,
      "inputs": [
        {
          "indexed": false,
          "internalType": "uint256",
          "name": "round",
          "type": "uint256"
        },
        {
          "indexed": false,
          "internalType": "uint256",
          "name": "step",
          "type": "uint256"
        },
        {
          "indexed": false,
          "internalType": "string",
          "name": "status",
          "type": "string"
        }
      ],
      "name": "status",
      "type": "event"
    },
    {
      "inputs": [],
      "name": "JHTokenStore",
      "outputs": [
        {
          "internalType": "contract JHToken",
          "name": "",
          "type": "address"
        }
      ],
      "stateMutability": "view",
      "type": "function",
      "constant": true
    },
    {
      "inputs": [],
      "name": "lockEstate",
      "outputs": [],
      "stateMutability": "nonpayable",
      "type": "function"
    },
    {
      "inputs": [
        {
          "internalType": "address",
          "name": "target",
          "type": "address"
        }
      ],
      "name": "returnTenToken",
      "outputs": [],
      "stateMutability": "nonpayable",
      "type": "function"
    },
    {
      "inputs": [],
      "name": "play",
      "outputs": [],
      "stateMutability": "nonpayable",
      "type": "function"
    },
    {
      "inputs": [
        {
          "internalType": "bool",
          "name": "isDealer",
          "type": "bool"
        },
        {
          "internalType": "bool",
          "name": "faceup",
          "type": "bool"
        }
      ],
      "name": "dealCard",
      "outputs": [],
      "stateMutability": "nonpayable",
      "type": "function"
    },
    {
      "inputs": [],
      "name": "hit",
      "outputs": [],
      "stateMutability": "nonpayable",
      "type": "function"
    },
    {
      "inputs": [],
      "name": "stand",
      "outputs": [],
      "stateMutability": "nonpayable",
      "type": "function"
    },
    {
      "inputs": [],
      "name": "doubleDown",
      "outputs": [],
      "stateMutability": "nonpayable",
      "type": "function"
    },
    {
      "inputs": [],
      "name": "score",
      "outputs": [],
      "stateMutability": "nonpayable",
      "type": "function"
    },
    {
      "inputs": [],
      "name": "getPlayerCards",
      "outputs": [
        {
          "components": [
            {
              "internalType": "string",
              "name": "suit",
              "type": "string"
            },
            {
              "internalType": "uint256",
              "name": "num",
              "type": "uint256"
            },
            {
              "internalType": "bool",
              "name": "isHidden",
              "type": "bool"
            }
          ],
          "internalType": "struct BlackJack.Card[]",
          "name": "",
          "type": "tuple[]"
        }
      ],
      "stateMutability": "view",
      "type": "function",
      "constant": true
    },
    {
      "inputs": [],
      "name": "getDealerCards",
      "outputs": [
        {
          "components": [
            {
              "internalType": "string",
              "name": "suit",
              "type": "string"
            },
            {
              "internalType": "uint256",
              "name": "num",
              "type": "uint256"
            },
            {
              "internalType": "bool",
              "name": "isHidden",
              "type": "bool"
            }
          ],
          "internalType": "struct BlackJack.Card[]",
          "name": "",
          "type": "tuple[]"
        }
      ],
      "stateMutability": "view",
      "type": "function",
      "constant": true
    }
  ],
  "bytecode": "0x608060405263047c351060005560405180608001604052806040518060400160405280600181526020017f530000000000000000000000000000000000000000000000000000000000000081525081526020016040518060400160405280600181526020017f480000000000000000000000000000000000000000000000000000000000000081525081526020016040518060400160405280600181526020017f440000000000000000000000000000000000000000000000000000000000000081525081526020016040518060400160405280600181526020017f43000000000000000000000000000000000000000000000000000000000000008152508152506008906004620001139291906200018f565b503480156200012157600080fd5b5060405162002508380380620025088339818101604052810190620001479190620002d9565b80600760006101000a81548173ffffffffffffffffffffffffffffffffffffffff021916908373ffffffffffffffffffffffffffffffffffffffff160217905550506200066c565b8260048101928215620001cf579160200282015b82811115620001ce578251829081620001bd919062000585565b5091602001919060010190620001a3565b5b509050620001de9190620001e2565b5090565b5b80821115620002065760008181620001fc91906200020a565b50600101620001e3565b5090565b508054620002189062000374565b6000825580601f106200022c57506200024d565b601f0160209004906000526020600020908101906200024c919062000250565b5b50565b5b808211156200026b57600081600090555060010162000251565b5090565b600080fd5b600073ffffffffffffffffffffffffffffffffffffffff82169050919050565b6000620002a18262000274565b9050919050565b620002b38162000294565b8114620002bf57600080fd5b50565b600081519050620002d381620002a8565b92915050565b600060208284031215620002f257620002f16200026f565b5b60006200030284828501620002c2565b91505092915050565b600081519050919050565b7f4e487b7100000000000000000000000000000000000000000000000000000000600052604160045260246000fd5b7f4e487b7100000000000000000000000000000000000000000000000000000000600052602260045260246000fd5b600060028204905060018216806200038d57607f821691505b602082108103620003a357620003a262000345565b5b50919050565b60008190508160005260206000209050919050565b60006020601f8301049050919050565b600082821b905092915050565b6000600883026200040d7fffffffffffffffffffffffffffffffffffffffffffffffffffffffffffffffff82620003ce565b620004198683620003ce565b95508019841693508086168417925050509392505050565b6000819050919050565b6000819050919050565b600062000466620004606200045a8462000431565b6200043b565b62000431565b9050919050565b6000819050919050565b620004828362000445565b6200049a62000491826200046d565b848454620003db565b825550505050565b600090565b620004b1620004a2565b620004be81848462000477565b505050565b5b81811015620004e657620004da600082620004a7565b600181019050620004c4565b5050565b601f8211156200053557620004ff81620003a9565b6200050a84620003be565b810160208510156200051a578190505b620005326200052985620003be565b830182620004c3565b50505b505050565b600082821c905092915050565b60006200055a600019846008026200053a565b1980831691505092915050565b600062000575838362000547565b9150826002028217905092915050565b62000590826200030b565b67ffffffffffffffff811115620005ac57620005ab62000316565b5b620005b8825462000374565b620005c5828285620004ea565b600060209050601f831160018114620005fd5760008415620005e8578287015190505b620005f4858262000567565b86555062000664565b601f1984166200060d86620003a9565b60005b82811015620006375784890151825560018201915060208501945060208101905062000610565b8683101562000657578489015162000653601f89168262000547565b8355505b6001600288020188555050505b505050505050565b611e8c806200067c6000396000f3fe608060405234801561001057600080fd5b50600436106100a95760003560e01c8063974ee4d811610071578063974ee4d814610118578063a7e1f6a214610136578063b376e2a714610140578063c2897b101461014a578063efedc66914610154578063feb308131461015e576100a9565b806311beb3e7146100ae5780632ae3594a146100cc57806334e01aa7146100d657806353eb9638146100f257806393e84cd91461010e575b600080fd5b6100b661017c565b6040516100c3919061127b565b60405180910390f35b6100d46101a2565b005b6100f060048036038101906100eb91906112d9565b61021b565b005b61010c6004803603810190610107919061133e565b6102c7565b005b6101166105a5565b005b6101206107ac565b60405161012d9190611548565b60405180910390f35b61013e6108c2565b005b61014861093d565b005b610152610ad1565b005b61015c610b2c565b005b610166610c02565b6040516101739190611548565b60405180910390f35b600760009054906101000a900473ffffffffffffffffffffffffffffffffffffffff1681565b6101ad6000806102c7565b6101b5610d18565b7f57d0963442297085e1d2281d3f0b369c3688710bd016b43cc9ce948927756a7260036000015460036001015460036002016040516101f693929190611683565b60405180910390a160036001016000815480929190610214906116f0565b9190505550565b600760009054906101000a900473ffffffffffffffffffffffffffffffffffffffff1673ffffffffffffffffffffffffffffffffffffffff1663a9059cbb82678ac7230489e800006040518363ffffffff1660e01b8152600401610280929190611782565b6020604051808303816000875af115801561029f573d6000803e3d6000fd5b505050506040513d601f19601f820116820180604052508101906102c391906117c0565b5050565b600060346000808154809291906102dd906116f0565b919050556040516020016102f1919061180e565b6040516020818303038152906040528051906020012060001c6103149190611858565b9050821561046057600260405180606001604052806008600d856103389190611889565b60048110610349576103486118ba565b5b018054610355906115a8565b80601f0160208091040260200160405190810160405280929190818152602001828054610381906115a8565b80156103ce5780601f106103a3576101008083540402835291602001916103ce565b820191906000526020600020905b8154815290600101906020018083116103b157829003601f168201915b50505050508152602001600d846103e59190611858565b81526020018415158152509080600181540180825580915050600190039060005260206000209060030201600090919091909150600082015181600001908161042e9190611aa5565b506020820151816001015560408201518160020160006101000a81548160ff02191690831515021790555050506105a0565b600160405180606001604052806008600d8561047c9190611889565b6004811061048d5761048c6118ba565b5b018054610499906115a8565b80601f01602080910402602001604051908101604052809291908181526020018280546104c5906115a8565b80156105125780601f106104e757610100808354040283529160200191610512565b820191906000526020600020905b8154815290600101906020018083116104f557829003601f168201915b50505050508152602001600d846105299190611858565b8152602001841515815250908060018154018082558091505060019003906000526020600020906003020160009091909190915060008201518160000190816105729190611aa5565b506020820151816001015560408201518160020160006101000a81548160ff02191690831515021790555050505b505050565b6105ad61093d565b604051806080016040528060008152602001600081526020016040518060400160405280600d81526020017f756e64657465726d696e746564000000000000000000000000000000000000008152508152602001600015158152506003600082015181600001556020820151816001015560408201518160020190816106339190611aa5565b5060608201518160030160006101000a81548160ff021916908315150217905550905050600260006106659190611138565b600160006106739190611138565b61067e6000806102c7565b6106896000806102c7565b6106946001806102c7565b6106a0600160006102c7565b60156106ac6002610de7565b036106fe576040518060400160405280600481526020017f6c6f736500000000000000000000000000000000000000000000000000000000815250600360020190816106f89190611aa5565b50610761565b601561070a6001610de7565b03610760576040518060400160405280600381526020017f77696e0000000000000000000000000000000000000000000000000000000000815250600360020190816107569190611aa5565b5061075f610f41565b5b5b7f57d0963442297085e1d2281d3f0b369c3688710bd016b43cc9ce948927756a7260036000015460036001015460036002016040516107a293929190611683565b60405180910390a1565b60606002805480602002602001604051908101604052809291908181526020016000905b828210156108b95783829060005260206000209060030201604051806060016040529081600082018054610803906115a8565b80601f016020809104026020016040519081016040528092919081815260200182805461082f906115a8565b801561087c5780601f106108515761010080835404028352916020019161087c565b820191906000526020600020905b81548152906001019060200180831161085f57829003601f168201915b50505050508152602001600182015481526020016002820160009054906101000a900460ff161515151581525050815260200190600101906107d0565b50505050905090565b60016003800160006101000a81548160ff0219169083151502179055506108ea6000806102c7565b6108f2610b2c565b7f57d0963442297085e1d2281d3f0b369c3688710bd016b43cc9ce948927756a72600360000154600360010154600360020160405161093393929190611683565b60405180910390a1565b6000600760009054906101000a900473ffffffffffffffffffffffffffffffffffffffff1673ffffffffffffffffffffffffffffffffffffffff1663dd62ed3e33306040518363ffffffff1660e01b815260040161099c929190611b77565b602060405180830381865afa1580156109b9573d6000803e3d6000fd5b505050506040513d601f19601f820116820180604052508101906109dd9190611bcc565b90506002811015610a23576040517f08c379a0000000000000000000000000000000000000000000000000000000008152600401610a1a90611c6b565b60405180910390fd5b600760009054906101000a900473ffffffffffffffffffffffffffffffffffffffff1673ffffffffffffffffffffffffffffffffffffffff166323b872dd3330671bc16d674ec800006040518463ffffffff1660e01b8152600401610a8a93929190611cc6565b6020604051808303816000875af1158015610aa9573d6000803e3d6000fd5b505050506040513d601f19601f82011682018060405250810190610acd91906117c0565b5050565b610ad96110b2565b610ae1610b2c565b7f57d0963442297085e1d2281d3f0b369c3688710bd016b43cc9ce948927756a726003600001546003600101546003600201604051610b2293929190611683565b60405180910390a1565b6000610b386002610de7565b90506000610b466001610de7565b905081811115610bad576040518060400160405280600381526020017f77696e000000000000000000000000000000000000000000000000000000000081525060036002019081610b979190611aa5565b50610ba06110f7565b610ba8610f41565b610bfe565b6040518060400160405280600481526020017f6c6f73650000000000000000000000000000000000000000000000000000000081525060036002019081610bf49190611aa5565b50610bfd6110f7565b5b5050565b60606001805480602002602001604051908101604052809291908181526020016000905b82821015610d0f5783829060005260206000209060030201604051806060016040529081600082018054610c59906115a8565b80601f0160208091040260200160405190810160405280929190818152602001828054610c85906115a8565b8015610cd25780601f10610ca757610100808354040283529160200191610cd2565b820191906000526020600020905b815481529060010190602001808311610cb557829003601f168201915b50505050508152602001600182015481526020016002820160009054906101000a900460ff16151515158152505081526020019060010190610c26565b50505050905090565b6000610d246001610de7565b90506000610d326002610de7565b905060008203610d89576040518060400160405280600481526020017f6c6f73650000000000000000000000000000000000000000000000000000000081525060036002019081610d839190611aa5565b50610de3565b60008103610de2576040518060400160405280600381526020017f77696e000000000000000000000000000000000000000000000000000000000081525060036002019081610dd89190611aa5565b50610de1610f41565b5b5b5050565b600080600090506000805b8480549050811015610edf576000858281548110610e1357610e126118ba565b5b90600052602060002090600302016001015403610e4c578280610e35906116f0565b935050600b82610e459190611cfd565b9150610ecc565b6009858281548110610e6157610e606118ba565b5b90600052602060002090600302016001015410610e8c57600a82610e859190611cfd565b9150610ecb565b6001858281548110610ea157610ea06118ba565b5b906000526020600020906003020160010154610ebd9190611cfd565b82610ec89190611cfd565b91505b5b8080610ed7906116f0565b915050610df2565b505b601581118015610ef15750600082115b15610f22576000821115610f1d578180610f0a90611d31565b925050600a81610f1a9190611d5a565b90505b610ee1565b6015811115610f3657600092505050610f3c565b80925050505b919050565b6003800160009054906101000a900460ff161561100657600760009054906101000a900473ffffffffffffffffffffffffffffffffffffffff1673ffffffffffffffffffffffffffffffffffffffff1663a9059cbb33673782dace9d9000006040518363ffffffff1660e01b8152600401610fbd929190611dc9565b6020604051808303816000875af1158015610fdc573d6000803e3d6000fd5b505050506040513d601f19601f8201168201806040525081019061100091906117c0565b506110b0565b600760009054906101000a900473ffffffffffffffffffffffffffffffffffffffff1673ffffffffffffffffffffffffffffffffffffffff1663a9059cbb336729a2241af62c00006040518363ffffffff1660e01b815260040161106b929190611e2d565b6020604051808303816000875af115801561108a573d6000803e3d6000fd5b505050506040513d601f19601f820116820180604052508101906110ae91906117c0565b505b565b60006110be6002610de7565b90505b6011811080156110d2575060008114155b156110f4576110e3600160006102c7565b6110ed6002610de7565b90506110c1565b50565b6000600260008154811061110e5761110d6118ba565b5b906000526020600020906003020160020160006101000a81548160ff021916908315150217905550565b5080546000825560030290600052602060002090810190611159919061115c565b50565b5b8082111561119b5760008082016000611176919061119f565b60018201600090556002820160006101000a81549060ff02191690555060030161115d565b5090565b5080546111ab906115a8565b6000825580601f106111bd57506111dc565b601f0160209004906000526020600020908101906111db91906111df565b5b50565b5b808211156111f85760008160009055506001016111e0565b5090565b600073ffffffffffffffffffffffffffffffffffffffff82169050919050565b6000819050919050565b600061124161123c611237846111fc565b61121c565b6111fc565b9050919050565b600061125382611226565b9050919050565b600061126582611248565b9050919050565b6112758161125a565b82525050565b6000602082019050611290600083018461126c565b92915050565b600080fd5b60006112a6826111fc565b9050919050565b6112b68161129b565b81146112c157600080fd5b50565b6000813590506112d3816112ad565b92915050565b6000602082840312156112ef576112ee611296565b5b60006112fd848285016112c4565b91505092915050565b60008115159050919050565b61131b81611306565b811461132657600080fd5b50565b60008135905061133881611312565b92915050565b6000806040838503121561135557611354611296565b5b600061136385828601611329565b925050602061137485828601611329565b9150509250929050565b600081519050919050565b600082825260208201905092915050565b6000819050602082019050919050565b600081519050919050565b600082825260208201905092915050565b60005b838110156113e45780820151818401526020810190506113c9565b60008484015250505050565b6000601f19601f8301169050919050565b600061140c826113aa565b61141681856113b5565b93506114268185602086016113c6565b61142f816113f0565b840191505092915050565b6000819050919050565b61144d8161143a565b82525050565b61145c81611306565b82525050565b6000606083016000830151848203600086015261147f8282611401565b91505060208301516114946020860182611444565b5060408301516114a76040860182611453565b508091505092915050565b60006114be8383611462565b905092915050565b6000602082019050919050565b60006114de8261137e565b6114e88185611389565b9350836020820285016114fa8561139a565b8060005b85811015611536578484038952815161151785826114b2565b9450611522836114c6565b925060208a019950506001810190506114fe565b50829750879550505050505092915050565b6000602082019050818103600083015261156281846114d3565b905092915050565b6115738161143a565b82525050565b7f4e487b7100000000000000000000000000000000000000000000000000000000600052602260045260246000fd5b600060028204905060018216806115c057607f821691505b6020821081036115d3576115d2611579565b5b50919050565b600082825260208201905092915050565b60008190508160005260206000209050919050565b6000815461160c816115a8565b61161681866115d9565b9450600182166000811461163157600181146116475761167a565b60ff19831686528115156020028601935061167a565b611650856115ea565b60005b8381101561167257815481890152600182019150602081019050611653565b808801955050505b50505092915050565b6000606082019050611698600083018661156a565b6116a5602083018561156a565b81810360408301526116b781846115ff565b9050949350505050565b7f4e487b7100000000000000000000000000000000000000000000000000000000600052601160045260246000fd5b60006116fb8261143a565b91507fffffffffffffffffffffffffffffffffffffffffffffffffffffffffffffffff820361172d5761172c6116c1565b5b600182019050919050565b6117418161129b565b82525050565b6000819050919050565b600061176c61176761176284611747565b61121c565b61143a565b9050919050565b61177c81611751565b82525050565b60006040820190506117976000830185611738565b6117a46020830184611773565b9392505050565b6000815190506117ba81611312565b92915050565b6000602082840312156117d6576117d5611296565b5b60006117e4848285016117ab565b91505092915050565b6000819050919050565b6118086118038261143a565b6117ed565b82525050565b600061181a82846117f7565b60208201915081905092915050565b7f4e487b7100000000000000000000000000000000000000000000000000000000600052601260045260246000fd5b60006118638261143a565b915061186e8361143a565b92508261187e5761187d611829565b5b828206905092915050565b60006118948261143a565b915061189f8361143a565b9250826118af576118ae611829565b5b828204905092915050565b7f4e487b7100000000000000000000000000000000000000000000000000000000600052603260045260246000fd5b7f4e487b7100000000000000000000000000000000000000000000000000000000600052604160045260246000fd5b60006020601f8301049050919050565b600082821b905092915050565b6000600883026119657fffffffffffffffffffffffffffffffffffffffffffffffffffffffffffffffff82611928565b61196f8683611928565b95508019841693508086168417925050509392505050565b60006119a261199d6119988461143a565b61121c565b61143a565b9050919050565b6000819050919050565b6119bc83611987565b6119d06119c8826119a9565b848454611935565b825550505050565b600090565b6119e56119d8565b6119f08184846119b3565b505050565b5b81811015611a1457611a096000826119dd565b6001810190506119f6565b5050565b601f821115611a5957611a2a816115ea565b611a3384611918565b81016020851015611a42578190505b611a56611a4e85611918565b8301826119f5565b50505b505050565b600082821c905092915050565b6000611a7c60001984600802611a5e565b1980831691505092915050565b6000611a958383611a6b565b9150826002028217905092915050565b611aae826113aa565b67ffffffffffffffff811115611ac757611ac66118e9565b5b611ad182546115a8565b611adc828285611a18565b600060209050601f831160018114611b0f5760008415611afd578287015190505b611b078582611a89565b865550611b6f565b601f198416611b1d866115ea565b60005b82811015611b4557848901518255600182019150602085019450602081019050611b20565b86831015611b625784890151611b5e601f891682611a6b565b8355505b6001600288020188555050505b505050505050565b6000604082019050611b8c6000830185611738565b611b996020830184611738565b9392505050565b611ba98161143a565b8114611bb457600080fd5b50565b600081519050611bc681611ba0565b92915050565b600060208284031215611be257611be1611296565b5b6000611bf084828501611bb7565b91505092915050565b7f596f75206e65656420746f20736574203220746f6b656e20746f20616c6c6f7760008201527f616e6365206174206c6561737400000000000000000000000000000000000000602082015250565b6000611c55602d836115d9565b9150611c6082611bf9565b604082019050919050565b60006020820190508181036000830152611c8481611c48565b9050919050565b6000819050919050565b6000611cb0611cab611ca684611c8b565b61121c565b61143a565b9050919050565b611cc081611c95565b82525050565b6000606082019050611cdb6000830186611738565b611ce86020830185611738565b611cf56040830184611cb7565b949350505050565b6000611d088261143a565b9150611d138361143a565b9250828201905080821115611d2b57611d2a6116c1565b5b92915050565b6000611d3c8261143a565b915060008203611d4f57611d4e6116c1565b5b600182039050919050565b6000611d658261143a565b9150611d708361143a565b9250828203905081811115611d8857611d876116c1565b5b92915050565b6000819050919050565b6000611db3611dae611da984611d8e565b61121c565b61143a565b9050919050565b611dc381611d98565b82525050565b6000604082019050611dde6000830185611738565b611deb6020830184611dba565b9392505050565b6000819050919050565b6000611e17611e12611e0d84611df2565b61121c565b61143a565b9050919050565b611e2781611dfc565b82525050565b6000604082019050611e426000830185611738565b611e4f6020830184611e1e565b939250505056fea26469706673582212209ce20784254403860ed388060c79507e4e3d665fe2dc6b96822d9b7933251c1f64736f6c63430008130033",
  "immutableReferences": {},
  "source": "// SPDX-License-Identifier: MIT\nimport \"./JHToken.sol\";\n\npragma solidity ^0.8.7;\n\ncontract BlackJack {\n    struct Game {\n        uint256 round;\n        uint256 step;\n        string status;\n        bool isDouble;\n    }\n\n    struct Card {\n        string suit;\n        uint256 num;\n        bool isHidden;\n    }\n\n    uint256 initialNumber = 75248912;\n    Card[] PlayerHand;\n    Card[] DealerHand;\n    Game game;\n    JHToken public JHTokenStore;\n    string[4] suit = [\"S\", \"H\", \"D\", \"C\"];\n\n    event status(uint256 round, uint256 step, string status);\n\n    constructor(address JHTokenDEXAddress) {\n        JHTokenStore = JHToken(JHTokenDEXAddress);\n    }\n\n    function lockEstate() public {\n        // check ether is enough\n        uint256 allowance = JHTokenStore.allowance(msg.sender, address(this));\n        require(\n            allowance >= 2,\n            \"You need to set 2 token to allowance at least\"\n        );\n        JHTokenStore.transferFrom(msg.sender, address(this), 2e18);\n    }\n\n    function releaseEstate() internal {\n        if (game.isDouble) {\n            JHTokenStore.transfer(msg.sender, 4e18);\n        } else {\n            JHTokenStore.transfer(msg.sender, 3e18);\n        }\n    }\n\n    function returnTenToken(address target) public {\n        JHTokenStore.transfer(target, 1e19);\n    }\n\n    function play() external {\n        //\n        lockEstate();\n\n        //initialize\n        game = Game(0, 0, \"undeterminted\", false);\n        delete DealerHand;\n        delete PlayerHand;\n        //deal\n        dealCard(false, false);\n        dealCard(false, false);\n        dealCard(true, true);\n        dealCard(true, false);\n\n        //check blackjack or not\n        if (PointOf(DealerHand) == 21) {\n            game.status = \"lose\";\n        } else if (PointOf(PlayerHand) == 21) {\n            game.status = \"win\";\n            releaseEstate();\n        }\n\n        emit status(game.round, game.step, game.status);\n    }\n\n    function dealCard(bool isDealer, bool faceup) public {\n        uint256 tmp = uint256(keccak256(abi.encodePacked(initialNumber++))) %\n            52;\n        if (isDealer) {\n            DealerHand.push(Card(suit[tmp / 13], tmp % 13, faceup));\n        } else {\n            PlayerHand.push(Card(suit[tmp / 13], tmp % 13, faceup));\n        }\n    }\n\n    function hit() public {\n        dealCard(false, false);\n        determint();\n        //emit status(game.round, game.step, game.status);\n\n        emit status(game.round, game.step, game.status);\n        game.step++;\n    }\n\n    function stand() public {\n        dealermove();\n        score();\n\n        emit status(game.round, game.step, game.status);\n    }\n\n    function doubleDown() public {\n        game.isDouble = true;\n        dealCard(false, false);\n        score();\n        emit status(game.round, game.step, game.status);\n    }\n\n    function flipDealerCard() internal {\n        DealerHand[0].isHidden = false;\n    }\n\n    function determint() internal {\n        uint256 playerpoint = PointOf(PlayerHand);\n        uint256 dealerpoint = PointOf(DealerHand);\n        if (playerpoint == 0) {\n            game.status = \"lose\";\n        } else if (dealerpoint == 0) {\n            game.status = \"win\";\n            releaseEstate();\n        }\n    }\n\n    function dealermove() internal {\n        uint256 tmpP = PointOf(DealerHand);\n        while (tmpP < 17 && !(tmpP == 0)) {\n            dealCard(true, false);\n            tmpP = PointOf(DealerHand);\n        }\n    }\n\n    function score() public {\n        uint256 DealerPoint = PointOf(DealerHand);\n        uint256 PlayerPoint = PointOf(PlayerHand);\n        if (PlayerPoint > DealerPoint) {\n            game.status = \"win\";\n            flipDealerCard();\n            releaseEstate();\n        } else {\n            game.status = \"lose\";\n            flipDealerCard();\n        }\n    }\n\n    function PointOf(Card[] storage Hand) internal view returns (uint256) {\n        uint256 A = 0;\n        uint256 point = 0;\n        for (uint256 i = 0; i < Hand.length; i++) {\n            if (Hand[i].num == 0) //A\n            {\n                A++;\n                point += 11;\n            } else if (Hand[i].num >= 9) //10\n            {\n                point += 10;\n            } else {\n                point += (Hand[i].num + 1); //+\n            }\n        }\n        while (\n            point > 21 && A > 0 //21A1\n        ) {\n            if (A > 0) {\n                A--;\n                point -= 10;\n            }\n        }\n        if (point > 21) return 0;\n        return point;\n    }\n\n    function getPlayerCards() public view returns (Card[] memory) {\n        return PlayerHand;\n    }\n\n    function getDealerCards() public view returns (Card[] memory) {\n        return DealerHand;\n    }\n}\n",
  "sourcePath": "/home/efficacy38/Tmp/Course/BlockChain/block-chain-test/truffle/contracts/BlackJack.sol",
  "compiler": {
    "name": "solc",
    "version": "0.8.19+commit.7dd6d404.Emscripten.clang"
  },
  "schemaVersion": "3.4.13",
  "updatedAt": "2023-06-14T16:37:54.366Z",
  "networkType": "ethereum",
  "devdoc": {
    "kind": "dev",
    "methods": {},
    "version": 1
  },
  "userdoc": {
    "kind": "user",
    "methods": {},
    "version": 1
  }
}