{
  "contractName": "BlackJack",
  "abi": [
    {
      "inputs": [
        {
          "internalType": "address",
          "name": "JHTokenDEXAddress",
          "type": "address"
        }
      ],
      "stateMutability": "nonpayable",
      "type": "constructor"
    },
    {
      "anonymous": false,
      "inputs": [
        {
          "indexed": false,
          "internalType": "uint256",
          "name": "round",
          "type": "uint256"
        },
        {
          "indexed": false,
          "internalType": "uint256",
          "name": "step",
          "type": "uint256"
        },
        {
          "indexed": false,
          "internalType": "string",
          "name": "status",
          "type": "string"
        }
      ],
      "name": "status",
      "type": "event"
    },
    {
      "inputs": [],
      "name": "JHTokenStore",
      "outputs": [
        {
          "internalType": "contract JHToken",
          "name": "",
          "type": "address"
        }
      ],
      "stateMutability": "view",
      "type": "function",
      "constant": true
    },
    {
      "inputs": [],
      "name": "lockEstate",
      "outputs": [],
      "stateMutability": "nonpayable",
      "type": "function"
    },
    {
      "inputs": [
        {
          "internalType": "address",
          "name": "target",
          "type": "address"
        }
      ],
      "name": "returnTenToken",
      "outputs": [],
      "stateMutability": "nonpayable",
      "type": "function"
    },
    {
      "inputs": [],
      "name": "play",
      "outputs": [],
      "stateMutability": "nonpayable",
      "type": "function"
    },
    {
      "inputs": [],
      "name": "hit",
      "outputs": [],
      "stateMutability": "nonpayable",
      "type": "function"
    },
    {
      "inputs": [],
      "name": "stand",
      "outputs": [],
      "stateMutability": "nonpayable",
      "type": "function"
    },
    {
      "inputs": [],
      "name": "doubleDown",
      "outputs": [],
      "stateMutability": "nonpayable",
      "type": "function"
    }
  ],
  "bytecode": "0x608060405234801561001057600080fd5b50604051610ea1380380610ea1833981810160405281019061003291906100dc565b80603a60006101000a81548173ffffffffffffffffffffffffffffffffffffffff021916908373ffffffffffffffffffffffffffffffffffffffff16021790555050610109565b600080fd5b600073ffffffffffffffffffffffffffffffffffffffff82169050919050565b60006100a98261007e565b9050919050565b6100b98161009e565b81146100c457600080fd5b50565b6000815190506100d6816100b0565b92915050565b6000602082840312156100f2576100f1610079565b5b6000610100848285016100c7565b91505092915050565b610d89806101186000396000f3fe608060405234801561001057600080fd5b506004361061007d5760003560e01c806393e84cd91161005b57806393e84cd9146100c6578063a7e1f6a2146100d0578063b376e2a7146100da578063c2897b10146100e45761007d565b806311beb3e7146100825780632ae3594a146100a057806334e01aa7146100aa575b600080fd5b61008a6100ee565b60405161009791906105ab565b60405180910390f35b6100a8610114565b005b6100c460048036038101906100bf9190610609565b610147565b005b6100ce6101f3565b005b6100d86102d2565b005b6100e2610305565b005b6100ec610499565b005b603a60009054906101000a900473ffffffffffffffffffffffffffffffffffffffff1681565b6036600301600081548092919061012a9061066f565b9190505550600160366003015403610145576101446104cc565b5b565b603a60009054906101000a900473ffffffffffffffffffffffffffffffffffffffff1673ffffffffffffffffffffffffffffffffffffffff1663a9059cbb82678ac7230489e800006040518363ffffffff1660e01b81526004016101ac929190610701565b6020604051808303816000875af11580156101cb573d6000803e3d6000fd5b505050506040513d601f19601f820116820180604052508101906101ef9190610762565b5050565b6101fb610305565b604051806080016040528060008152602001600081526020016040518060400160405280600d81526020017f756e64657465726d696e746564000000000000000000000000000000000000008152508152602001600081525060366000820151816000015560208201518160010155604082015181600201908161027f91906109cb565b50606082015181600301559050507f57d0963442297085e1d2281d3f0b369c3688710bd016b43cc9ce948927756a726036600001546036600101546040516102c8929190610b09565b60405180910390a1565b603660030160008154809291906102e89061066f565b9190505550600460366003015403610303576103026104cc565b5b565b6000603a60009054906101000a900473ffffffffffffffffffffffffffffffffffffffff1673ffffffffffffffffffffffffffffffffffffffff1663dd62ed3e33306040518363ffffffff1660e01b8152600401610364929190610b45565b602060405180830381865afa158015610381573d6000803e3d6000fd5b505050506040513d601f19601f820116820180604052508101906103a59190610b9a565b905060028110156103eb576040517f08c379a00000000000000000000000000000000000000000000000000000000081526004016103e290610c39565b60405180910390fd5b603a60009054906101000a900473ffffffffffffffffffffffffffffffffffffffff1673ffffffffffffffffffffffffffffffffffffffff166323b872dd3330671bc16d674ec800006040518463ffffffff1660e01b815260040161045293929190610c94565b6020604051808303816000875af1158015610471573d6000803e3d6000fd5b505050506040513d601f19601f820116820180604052508101906104959190610762565b5050565b603660030160008154809291906104af9061066f565b91905055506003603660030154036104ca576104c96104cc565b5b565b7f57d0963442297085e1d2281d3f0b369c3688710bd016b43cc9ce948927756a72603660000154603660010154604051610507929190610d17565b60405180910390a1603660000160008154809291906105259061066f565b9190505550565b600073ffffffffffffffffffffffffffffffffffffffff82169050919050565b6000819050919050565b600061057161056c6105678461052c565b61054c565b61052c565b9050919050565b600061058382610556565b9050919050565b600061059582610578565b9050919050565b6105a58161058a565b82525050565b60006020820190506105c0600083018461059c565b92915050565b600080fd5b60006105d68261052c565b9050919050565b6105e6816105cb565b81146105f157600080fd5b50565b600081359050610603816105dd565b92915050565b60006020828403121561061f5761061e6105c6565b5b600061062d848285016105f4565b91505092915050565b7f4e487b7100000000000000000000000000000000000000000000000000000000600052601160045260246000fd5b6000819050919050565b600061067a82610665565b91507fffffffffffffffffffffffffffffffffffffffffffffffffffffffffffffffff82036106ac576106ab610636565b5b600182019050919050565b6106c0816105cb565b82525050565b6000819050919050565b60006106eb6106e66106e1846106c6565b61054c565b610665565b9050919050565b6106fb816106d0565b82525050565b600060408201905061071660008301856106b7565b61072360208301846106f2565b9392505050565b60008115159050919050565b61073f8161072a565b811461074a57600080fd5b50565b60008151905061075c81610736565b92915050565b600060208284031215610778576107776105c6565b5b60006107868482850161074d565b91505092915050565b600081519050919050565b7f4e487b7100000000000000000000000000000000000000000000000000000000600052604160045260246000fd5b7f4e487b7100000000000000000000000000000000000000000000000000000000600052602260045260246000fd5b6000600282049050600182168061081057607f821691505b602082108103610823576108226107c9565b5b50919050565b60008190508160005260206000209050919050565b60006020601f8301049050919050565b600082821b905092915050565b60006008830261088b7fffffffffffffffffffffffffffffffffffffffffffffffffffffffffffffffff8261084e565b610895868361084e565b95508019841693508086168417925050509392505050565b60006108c86108c36108be84610665565b61054c565b610665565b9050919050565b6000819050919050565b6108e2836108ad565b6108f66108ee826108cf565b84845461085b565b825550505050565b600090565b61090b6108fe565b6109168184846108d9565b505050565b5b8181101561093a5761092f600082610903565b60018101905061091c565b5050565b601f82111561097f5761095081610829565b6109598461083e565b81016020851015610968578190505b61097c6109748561083e565b83018261091b565b50505b505050565b600082821c905092915050565b60006109a260001984600802610984565b1980831691505092915050565b60006109bb8383610991565b9150826002028217905092915050565b6109d48261078f565b67ffffffffffffffff8111156109ed576109ec61079a565b5b6109f782546107f8565b610a0282828561093e565b600060209050601f831160018114610a355760008415610a23578287015190505b610a2d85826109af565b865550610a95565b601f198416610a4386610829565b60005b82811015610a6b57848901518255600182019150602085019450602081019050610a46565b86831015610a885784890151610a84601f891682610991565b8355505b6001600288020188555050505b505050505050565b610aa681610665565b82525050565b600082825260208201905092915050565b7f756e64657465726d696e74656400000000000000000000000000000000000000600082015250565b6000610af3600d83610aac565b9150610afe82610abd565b602082019050919050565b6000606082019050610b1e6000830185610a9d565b610b2b6020830184610a9d565b8181036040830152610b3c81610ae6565b90509392505050565b6000604082019050610b5a60008301856106b7565b610b6760208301846106b7565b9392505050565b610b7781610665565b8114610b8257600080fd5b50565b600081519050610b9481610b6e565b92915050565b600060208284031215610bb057610baf6105c6565b5b6000610bbe84828501610b85565b91505092915050565b7f596f75206e65656420746f20736574203220746f6b656e20746f20616c6c6f7760008201527f616e6365206174206c6561737400000000000000000000000000000000000000602082015250565b6000610c23602d83610aac565b9150610c2e82610bc7565b604082019050919050565b60006020820190508181036000830152610c5281610c16565b9050919050565b6000819050919050565b6000610c7e610c79610c7484610c59565b61054c565b610665565b9050919050565b610c8e81610c63565b82525050565b6000606082019050610ca960008301866106b7565b610cb660208301856106b7565b610cc36040830184610c85565b949350505050565b7f77696e0000000000000000000000000000000000000000000000000000000000600082015250565b6000610d01600383610aac565b9150610d0c82610ccb565b602082019050919050565b6000606082019050610d2c6000830185610a9d565b610d396020830184610a9d565b8181036040830152610d4a81610cf4565b9050939250505056fea2646970667358221220f74c03cf6a6ddb2a689ac23e7c6f29c07e962b9fc93e34fc077c43255f08dc3b64736f6c63430008130033",
  "immutableReferences": {},
  "source": "// SPDX-License-Identifier: MIT\nimport \"./JHToken.sol\";\n\npragma solidity ^0.8.7;\n\ncontract BlackJack {\n    uint256[52] deck;\n    uint256[] PlayerHand;\n    uint256[] DealerHand;\n\n    struct Game {\n        uint256 round;\n        uint256 step;\n        string status;\n        uint256 testCnt;\n    }\n\n    Game game;\n    JHToken public JHTokenStore;\n\n    event status(uint256 round, uint256 step, string status);\n\n    constructor(address JHTokenDEXAddress) {\n        JHTokenStore = JHToken(JHTokenDEXAddress);\n    }\n\n    function lockEstate() public {\n        // check ether is enough\n        uint256 allowance = JHTokenStore.allowance(msg.sender, address(this));\n        require(\n            allowance >= 2,\n            \"You need to set 2 token to allowance at least\"\n        );\n        JHTokenStore.transferFrom(msg.sender, address(this), 2e18);\n    }\n\n    function releaseEstate(uint256 amount) internal {\n        JHTokenStore.transfer(msg.sender, amount);\n    }\n\n    function returnTenToken(address target) public {\n        JHTokenStore.transfer(target, 1e19);\n    }\n\n    function play() external {\n        //\n        lockEstate();\n\n        game = Game(0, 0, \"undeterminted\", 0);\n        emit status(game.round, game.step, \"undeterminted\");\n    }\n\n    function fakeEnd() internal {\n        emit status(game.round, game.step, \"win\");\n        game.round++;\n    }\n\n    function deal() internal {}\n\n    function hit() public {\n        game.testCnt++;\n        if (game.testCnt == 1) {\n            fakeEnd();\n        }\n    }\n\n    function stand() public {\n        game.testCnt++;\n        if (game.testCnt == 3) {\n            fakeEnd();\n        }\n    }\n\n    function doubleDown() public {\n        game.testCnt++;\n        if (game.testCnt == 4) {\n            fakeEnd();\n        }\n    }\n\n    // function PointOf(uint256[] storage Hand) internal view returns (uint256) {\n    //     uint256 A = 0;\n    //     uint256 point = 0;\n    //     for (uint256 i = 0; i < Hand.length; i++) {\n    //         if (Hand[i] % 13 == 1)\n    //             //A\n    //             A++;\n    //         point += 11;\n    //         if (Hand[i] % 13 >= 9)\n    //             //10\n    //             point += 10;\n    //         else point += ((Hand[i] % 13) + 1); //+\n    //     }\n    //     while (\n    //         point > 21 //21A1\n    //     ) {\n    //         if (A > 0) {\n    //             A--;\n    //             point -= 10;\n    //         }\n    //     }\n    //     if (point > 21) return 0;\n    //     return point;\n    // }\n}\n\ncontract blackJack is Mortal {\n    // uint256 exchangeRate = 10;\n\n    receive() external payable {}\n}\n",
  "sourcePath": "/home/efficacy38/Tmp/Course/BlockChain/block-chain-test/truffle/contracts/BlackJack.sol",
  "compiler": {
    "name": "solc",
    "version": "0.8.19+commit.7dd6d404.Emscripten.clang"
  },
  "schemaVersion": "3.4.13",
  "updatedAt": "2023-06-11T07:22:56.514Z",
  "networkType": "ethereum",
  "devdoc": {
    "kind": "dev",
    "methods": {},
    "version": 1
  },
  "userdoc": {
    "kind": "user",
    "methods": {},
    "version": 1
  }
}