{
  "contractName": "blackJack",
  "abi": [
    {
      "inputs": [],
      "name": "destroy",
      "outputs": [],
      "stateMutability": "nonpayable",
      "type": "function"
    },
    {
      "stateMutability": "payable",
      "type": "receive"
    }
  ],
  "bytecode": "0x608060405234801561001057600080fd5b50336000806101000a81548173ffffffffffffffffffffffffffffffffffffffff021916908373ffffffffffffffffffffffffffffffffffffffff1602179055506101e5806100606000396000f3fe6080604052600436106100225760003560e01c806383197ef01461002e57610029565b3661002957005b600080fd5b34801561003a57600080fd5b50610043610045565b005b60008054906101000a900473ffffffffffffffffffffffffffffffffffffffff1673ffffffffffffffffffffffffffffffffffffffff163373ffffffffffffffffffffffffffffffffffffffff16146100d3576040517f08c379a00000000000000000000000000000000000000000000000000000000081526004016100ca9061018f565b60405180910390fd5b60008054906101000a900473ffffffffffffffffffffffffffffffffffffffff1673ffffffffffffffffffffffffffffffffffffffff16ff5b600082825260208201905092915050565b7f4f6e6c792074686520636f6e7472616374206f776e65722063616e2063616c6c60008201527f20746869732066756e6374696f6e000000000000000000000000000000000000602082015250565b6000610179602e8361010c565b91506101848261011d565b604082019050919050565b600060208201905081810360008301526101a88161016c565b905091905056fea26469706673582212206e1811915a6db389fb724373d8dc15e4b8bad4e513bc17a0b89bd333e0bf2b2e64736f6c63430008130033",
  "immutableReferences": {},
  "source": "// SPDX-License-Identifier: MIT\nimport \"./JHToken.sol\";\n\npragma solidity ^0.8.7;\n\ncontract BlackJack {\n    uint256[52] deck;\n    uint256[] PlayerHand;\n    uint256[] DealerHand;\n\n    struct Game {\n        uint256 round;\n        uint256 step;\n        string status;\n        uint256 testCnt;\n    }\n\n    Game game;\n    JHToken public JHTokenStore;\n\n    event status(uint256 round, uint256 step, string status);\n\n    constructor(address JHTokenDEXAddress) {\n        JHTokenStore = JHToken(JHTokenDEXAddress);\n    }\n\n    function lockEstate() public {\n        // check ether is enough\n        uint256 allowance = JHTokenStore.allowance(msg.sender, address(this));\n        require(\n            allowance >= 2,\n            \"You need to set 2 token to allowance at least\"\n        );\n        JHTokenStore.transferFrom(msg.sender, address(this), 2e18);\n    }\n\n    function releaseEstate(uint256 amount) internal {\n        JHTokenStore.transfer(msg.sender, amount);\n    }\n\n    function returnTenToken(address target) public {\n        JHTokenStore.transfer(target, 1e19);\n    }\n\n    function play() external {\n        //初始化\n        lockEstate();\n\n        game = Game(0, 0, \"undeterminted\", 0);\n    }\n\n    function fakeEnd() internal {\n        emit status(game.round, game.step, \"win\");\n        game.round++;\n    }\n\n    function deal() internal {}\n\n    function hit() public {\n        game.testCnt++;\n        if (game.testCnt == 1) {\n            fakeEnd();\n        }\n    }\n\n    function stand() public {\n        game.testCnt++;\n        if (game.testCnt == 3) {\n            fakeEnd();\n        }\n    }\n\n    function doubleDown() public {\n        game.testCnt++;\n        if (game.testCnt == 4) {\n            fakeEnd();\n        }\n    }\n\n    // function PointOf(uint256[] storage Hand) internal view returns (uint256) {\n    //     uint256 A = 0;\n    //     uint256 point = 0;\n    //     for (uint256 i = 0; i < Hand.length; i++) {\n    //         if (Hand[i] % 13 == 1)\n    //             //這張是A\n    //             A++;\n    //         point += 11;\n    //         if (Hand[i] % 13 >= 9)\n    //             //這張10分\n    //             point += 10;\n    //         else point += ((Hand[i] % 13) + 1); //數字多少就+幾分\n    //     }\n    //     while (\n    //         point > 21 //分數超過21，有A的話要適當的當成1分\n    //     ) {\n    //         if (A > 0) {\n    //             A--;\n    //             point -= 10;\n    //         }\n    //     }\n    //     if (point > 21) return 0;\n    //     return point;\n    // }\n}\n\ncontract blackJack is Mortal {\n    // uint256 exchangeRate = 10;\n\n    receive() external payable {}\n}\n",
  "sourcePath": "/home/efficacy38/Tmp/Course/BlockChain/block-chain-test/truffle/contracts/BlackJack.sol",
  "compiler": {
    "name": "solc",
    "version": "0.8.19+commit.7dd6d404.Emscripten.clang"
  },
  "schemaVersion": "3.4.13",
  "updatedAt": "2023-06-10T18:01:08.534Z",
  "devdoc": {
    "kind": "dev",
    "methods": {},
    "version": 1
  },
  "userdoc": {
    "kind": "user",
    "methods": {},
    "version": 1
  }
}