{
  "contractName": "BlackJack",
  "abi": [
    {
      "inputs": [
        {
          "internalType": "address",
          "name": "JHTokenDEXAddress",
          "type": "address"
        }
      ],
      "stateMutability": "nonpayable",
      "type": "constructor"
    },
    {
      "anonymous": false,
      "inputs": [
        {
          "indexed": false,
          "internalType": "uint256",
          "name": "round",
          "type": "uint256"
        },
        {
          "indexed": false,
          "internalType": "uint256",
          "name": "step",
          "type": "uint256"
        },
        {
          "indexed": false,
          "internalType": "string",
          "name": "status",
          "type": "string"
        }
      ],
      "name": "status",
      "type": "event"
    },
    {
      "inputs": [],
      "name": "JHTokenStore",
      "outputs": [
        {
          "internalType": "contract JHToken",
          "name": "",
          "type": "address"
        }
      ],
      "stateMutability": "view",
      "type": "function",
      "constant": true
    },
    {
      "inputs": [],
      "name": "lockEstate",
      "outputs": [],
      "stateMutability": "nonpayable",
      "type": "function"
    },
    {
      "inputs": [
        {
          "internalType": "address",
          "name": "target",
          "type": "address"
        }
      ],
      "name": "returnTenToken",
      "outputs": [],
      "stateMutability": "nonpayable",
      "type": "function"
    },
    {
      "inputs": [],
      "name": "play",
      "outputs": [],
      "stateMutability": "nonpayable",
      "type": "function"
    },
    {
      "inputs": [],
      "name": "hit",
      "outputs": [],
      "stateMutability": "nonpayable",
      "type": "function"
    },
    {
      "inputs": [],
      "name": "stand",
      "outputs": [],
      "stateMutability": "nonpayable",
      "type": "function"
    },
    {
      "inputs": [],
      "name": "doubleDown",
      "outputs": [],
      "stateMutability": "nonpayable",
      "type": "function"
    }
  ],
  "bytecode": "0x608060405234801561001057600080fd5b50604051610dd6380380610dd6833981810160405281019061003291906100dc565b80603a60006101000a81548173ffffffffffffffffffffffffffffffffffffffff021916908373ffffffffffffffffffffffffffffffffffffffff16021790555050610109565b600080fd5b600073ffffffffffffffffffffffffffffffffffffffff82169050919050565b60006100a98261007e565b9050919050565b6100b98161009e565b81146100c457600080fd5b50565b6000815190506100d6816100b0565b92915050565b6000602082840312156100f2576100f1610079565b5b6000610100848285016100c7565b91505092915050565b610cbe806101186000396000f3fe608060405234801561001057600080fd5b506004361061007d5760003560e01c806393e84cd91161005b57806393e84cd9146100c6578063a7e1f6a2146100d0578063b376e2a7146100da578063c2897b10146100e45761007d565b806311beb3e7146100825780632ae3594a146100a057806334e01aa7146100aa575b600080fd5b61008a6100ee565b6040516100979190610568565b60405180910390f35b6100a8610114565b005b6100c460048036038101906100bf91906105c6565b610147565b005b6100ce6101f3565b005b6100d861028f565b005b6100e26102c2565b005b6100ec610456565b005b603a60009054906101000a900473ffffffffffffffffffffffffffffffffffffffff1681565b6036600301600081548092919061012a9061062c565b919050555060016036600301540361014557610144610489565b5b565b603a60009054906101000a900473ffffffffffffffffffffffffffffffffffffffff1673ffffffffffffffffffffffffffffffffffffffff1663a9059cbb82678ac7230489e800006040518363ffffffff1660e01b81526004016101ac9291906106be565b6020604051808303816000875af11580156101cb573d6000803e3d6000fd5b505050506040513d601f19601f820116820180604052508101906101ef919061071f565b5050565b6101fb6102c2565b604051806080016040528060008152602001600081526020016040518060400160405280600d81526020017f756e64657465726d696e746564000000000000000000000000000000000000008152508152602001600081525060366000820151816000015560208201518160010155604082015181600201908161027f9190610988565b5060608201518160030155905050565b603660030160008154809291906102a59061062c565b91905055506004603660030154036102c0576102bf610489565b5b565b6000603a60009054906101000a900473ffffffffffffffffffffffffffffffffffffffff1673ffffffffffffffffffffffffffffffffffffffff1663dd62ed3e33306040518363ffffffff1660e01b8152600401610321929190610a5a565b602060405180830381865afa15801561033e573d6000803e3d6000fd5b505050506040513d601f19601f820116820180604052508101906103629190610aaf565b905060028110156103a8576040517f08c379a000000000000000000000000000000000000000000000000000000000815260040161039f90610b5f565b60405180910390fd5b603a60009054906101000a900473ffffffffffffffffffffffffffffffffffffffff1673ffffffffffffffffffffffffffffffffffffffff166323b872dd3330671bc16d674ec800006040518463ffffffff1660e01b815260040161040f93929190610bba565b6020604051808303816000875af115801561042e573d6000803e3d6000fd5b505050506040513d601f19601f82011682018060405250810190610452919061071f565b5050565b6036600301600081548092919061046c9061062c565b919050555060036036600301540361048757610486610489565b5b565b7f57d0963442297085e1d2281d3f0b369c3688710bd016b43cc9ce948927756a726036600001546036600101546040516104c4929190610c4c565b60405180910390a1603660000160008154809291906104e29061062c565b9190505550565b600073ffffffffffffffffffffffffffffffffffffffff82169050919050565b6000819050919050565b600061052e610529610524846104e9565b610509565b6104e9565b9050919050565b600061054082610513565b9050919050565b600061055282610535565b9050919050565b61056281610547565b82525050565b600060208201905061057d6000830184610559565b92915050565b600080fd5b6000610593826104e9565b9050919050565b6105a381610588565b81146105ae57600080fd5b50565b6000813590506105c08161059a565b92915050565b6000602082840312156105dc576105db610583565b5b60006105ea848285016105b1565b91505092915050565b7f4e487b7100000000000000000000000000000000000000000000000000000000600052601160045260246000fd5b6000819050919050565b600061063782610622565b91507fffffffffffffffffffffffffffffffffffffffffffffffffffffffffffffffff8203610669576106686105f3565b5b600182019050919050565b61067d81610588565b82525050565b6000819050919050565b60006106a86106a361069e84610683565b610509565b610622565b9050919050565b6106b88161068d565b82525050565b60006040820190506106d36000830185610674565b6106e060208301846106af565b9392505050565b60008115159050919050565b6106fc816106e7565b811461070757600080fd5b50565b600081519050610719816106f3565b92915050565b60006020828403121561073557610734610583565b5b60006107438482850161070a565b91505092915050565b600081519050919050565b7f4e487b7100000000000000000000000000000000000000000000000000000000600052604160045260246000fd5b7f4e487b7100000000000000000000000000000000000000000000000000000000600052602260045260246000fd5b600060028204905060018216806107cd57607f821691505b6020821081036107e0576107df610786565b5b50919050565b60008190508160005260206000209050919050565b60006020601f8301049050919050565b600082821b905092915050565b6000600883026108487fffffffffffffffffffffffffffffffffffffffffffffffffffffffffffffffff8261080b565b610852868361080b565b95508019841693508086168417925050509392505050565b600061088561088061087b84610622565b610509565b610622565b9050919050565b6000819050919050565b61089f8361086a565b6108b36108ab8261088c565b848454610818565b825550505050565b600090565b6108c86108bb565b6108d3818484610896565b505050565b5b818110156108f7576108ec6000826108c0565b6001810190506108d9565b5050565b601f82111561093c5761090d816107e6565b610916846107fb565b81016020851015610925578190505b610939610931856107fb565b8301826108d8565b50505b505050565b600082821c905092915050565b600061095f60001984600802610941565b1980831691505092915050565b6000610978838361094e565b9150826002028217905092915050565b6109918261074c565b67ffffffffffffffff8111156109aa576109a9610757565b5b6109b482546107b5565b6109bf8282856108fb565b600060209050601f8311600181146109f257600084156109e0578287015190505b6109ea858261096c565b865550610a52565b601f198416610a00866107e6565b60005b82811015610a2857848901518255600182019150602085019450602081019050610a03565b86831015610a455784890151610a41601f89168261094e565b8355505b6001600288020188555050505b505050505050565b6000604082019050610a6f6000830185610674565b610a7c6020830184610674565b9392505050565b610a8c81610622565b8114610a9757600080fd5b50565b600081519050610aa981610a83565b92915050565b600060208284031215610ac557610ac4610583565b5b6000610ad384828501610a9a565b91505092915050565b600082825260208201905092915050565b7f596f75206e65656420746f20736574203220746f6b656e20746f20616c6c6f7760008201527f616e6365206174206c6561737400000000000000000000000000000000000000602082015250565b6000610b49602d83610adc565b9150610b5482610aed565b604082019050919050565b60006020820190508181036000830152610b7881610b3c565b9050919050565b6000819050919050565b6000610ba4610b9f610b9a84610b7f565b610509565b610622565b9050919050565b610bb481610b89565b82525050565b6000606082019050610bcf6000830186610674565b610bdc6020830185610674565b610be96040830184610bab565b949350505050565b610bfa81610622565b82525050565b7f77696e0000000000000000000000000000000000000000000000000000000000600082015250565b6000610c36600383610adc565b9150610c4182610c00565b602082019050919050565b6000606082019050610c616000830185610bf1565b610c6e6020830184610bf1565b8181036040830152610c7f81610c29565b9050939250505056fea2646970667358221220636caab48aebd09f4b994218767ebbabb016f014c76a16487d2d4f325424e14a64736f6c63430008130033",
  "immutableReferences": {},
  "source": "// SPDX-License-Identifier: MIT\nimport \"./JHToken.sol\";\n\npragma solidity ^0.8.7;\n\ncontract BlackJack {\n    uint256[52] deck;\n    uint256[] PlayerHand;\n    uint256[] DealerHand;\n\n    struct Game {\n        uint256 round;\n        uint256 step;\n        string status;\n        uint256 testCnt;\n    }\n\n    Game game;\n    JHToken public JHTokenStore;\n\n    event status(uint256 round, uint256 step, string status);\n\n    constructor(address JHTokenDEXAddress) {\n        JHTokenStore = JHToken(JHTokenDEXAddress);\n    }\n\n    function lockEstate() public {\n        // check ether is enough\n        uint256 allowance = JHTokenStore.allowance(msg.sender, address(this));\n        require(\n            allowance >= 2,\n            \"You need to set 2 token to allowance at least\"\n        );\n        JHTokenStore.transferFrom(msg.sender, address(this), 2e18);\n    }\n\n    function releaseEstate(uint256 amount) internal {\n        JHTokenStore.transfer(msg.sender, amount);\n    }\n\n    function returnTenToken(address target) public {\n        JHTokenStore.transfer(target, 1e19);\n    }\n\n    function play() external {\n        //\n        lockEstate();\n\n        game = Game(0, 0, \"undeterminted\", 0);\n    }\n\n    function fakeEnd() internal {\n        emit status(game.round, game.step, \"win\");\n        game.round++;\n    }\n\n    function deal() internal {}\n\n    function hit() public {\n        game.testCnt++;\n        if (game.testCnt == 1) {\n            fakeEnd();\n        }\n    }\n\n    function stand() public {\n        game.testCnt++;\n        if (game.testCnt == 3) {\n            fakeEnd();\n        }\n    }\n\n    function doubleDown() public {\n        game.testCnt++;\n        if (game.testCnt == 4) {\n            fakeEnd();\n        }\n    }\n\n    // function PointOf(uint256[] storage Hand) internal view returns (uint256) {\n    //     uint256 A = 0;\n    //     uint256 point = 0;\n    //     for (uint256 i = 0; i < Hand.length; i++) {\n    //         if (Hand[i] % 13 == 1)\n    //             //A\n    //             A++;\n    //         point += 11;\n    //         if (Hand[i] % 13 >= 9)\n    //             //10\n    //             point += 10;\n    //         else point += ((Hand[i] % 13) + 1); //+\n    //     }\n    //     while (\n    //         point > 21 //21A1\n    //     ) {\n    //         if (A > 0) {\n    //             A--;\n    //             point -= 10;\n    //         }\n    //     }\n    //     if (point > 21) return 0;\n    //     return point;\n    // }\n}\n\ncontract blackJack is Mortal {\n    // uint256 exchangeRate = 10;\n\n    receive() external payable {}\n}\n",
  "sourcePath": "/home/efficacy38/Tmp/Course/BlockChain/block-chain-test/truffle/contracts/BlackJack.sol",
  "compiler": {
    "name": "solc",
    "version": "0.8.19+commit.7dd6d404.Emscripten.clang"
  },
  "schemaVersion": "3.4.13",
  "updatedAt": "2023-06-10T18:01:11.439Z",
  "networkType": "ethereum",
  "devdoc": {
    "kind": "dev",
    "methods": {},
    "version": 1
  },
  "userdoc": {
    "kind": "user",
    "methods": {},
    "version": 1
  }
}