{
  "contractName": "ContractFactory",
  "abi": [
    {
      "inputs": [],
      "name": "createInstance",
      "outputs": [],
      "stateMutability": "nonpayable",
      "type": "function"
    }
  ],
  "bytecode": "0x6080604052348015600f57600080fd5b5060fc8061001e6000396000f3fe6080604052348015600f57600080fd5b506004361060285760003560e01c8063ad50146714602d575b600080fd5b60336035565b005b604051603f90605e565b604051809103906000f080158015605a573d6000803e3d6000fd5b5050565b605c8061006b8339019056fe6080604052348015600f57600080fd5b50603f80601d6000396000f3fe6080604052600080fdfea264697066735822122076cd5745d616d43649026f8d0ef0a92f56569e3be8c7de16b7b7fefce87aabe164736f6c63430008130033a2646970667358221220111e67ad378c33bfdfcc00b4ce19163934c66c1fd48d216e79b9784badf64c8264736f6c63430008130033",
  "immutableReferences": {},
  "source": "// ./contracts/ContractFactory.sol\npragma solidity ^0.8.0;\n\ncontract ContractFactory {\n    function createInstance() public {\n        new Contract();\n    }\n}\n\ncontract Contract {\n    constructor() public {}\n}\n",
  "sourcePath": "/home/efficacy38/Tmp/Course/BlockChain/block-chain-test/truffle/contracts/ContractFactory.sol",
  "compiler": {
    "name": "solc",
    "version": "0.8.19+commit.7dd6d404.Emscripten.clang"
  },
  "schemaVersion": "3.4.13",
  "updatedAt": "2023-05-09T07:09:41.964Z",
  "devdoc": {
    "kind": "dev",
    "methods": {},
    "version": 1
  },
  "userdoc": {
    "kind": "user",
    "methods": {},
    "version": 1
  }
}