{
  "contractName": "Faucet",
  "abi": [
    {
      "anonymous": false,
      "inputs": [
        {
          "indexed": true,
          "internalType": "address",
          "name": "from",
          "type": "address"
        },
        {
          "indexed": false,
          "internalType": "uint256",
          "name": "amount",
          "type": "uint256"
        }
      ],
      "name": "Deposit",
      "type": "event"
    },
    {
      "anonymous": false,
      "inputs": [
        {
          "indexed": true,
          "internalType": "address",
          "name": "to",
          "type": "address"
        },
        {
          "indexed": false,
          "internalType": "uint256",
          "name": "amount",
          "type": "uint256"
        },
        {
          "indexed": false,
          "internalType": "uint256",
          "name": "timestamp",
          "type": "uint256"
        }
      ],
      "name": "Withdrawal",
      "type": "event"
    },
    {
      "inputs": [],
      "name": "destroy",
      "outputs": [],
      "stateMutability": "nonpayable",
      "type": "function"
    },
    {
      "stateMutability": "payable",
      "type": "receive",
      "payable": true
    },
    {
      "inputs": [
        {
          "internalType": "uint256",
          "name": "withdraw_amount",
          "type": "uint256"
        },
        {
          "internalType": "address",
          "name": "recipiant",
          "type": "address"
        }
      ],
      "name": "withdraw",
      "outputs": [],
      "stateMutability": "nonpayable",
      "type": "function"
    }
  ],
  "bytecode": "0x608060405234801561001057600080fd5b50336000806101000a81548173ffffffffffffffffffffffffffffffffffffffff021916908373ffffffffffffffffffffffffffffffffffffffff160217905550610547806100606000396000f3fe60806040526004361061002c5760003560e01c8062f714ce1461008657806383197ef0146100af57610081565b36610081573373ffffffffffffffffffffffffffffffffffffffff167fe1fffcc4923d04b559f4d29a8bfc6cda04eb5b0d3c460751c2402c5c5cc9109c3460405161007791906102c9565b60405180910390a2005b600080fd5b34801561009257600080fd5b506100ad60048036038101906100a89190610373565b6100c6565b005b3480156100bb57600080fd5b506100c46101b9565b005b67016345785d8a00008211156100db57600080fd5b8147101561011e576040517f08c379a000000000000000000000000000000000000000000000000000000000815260040161011590610436565b60405180910390fd5b8073ffffffffffffffffffffffffffffffffffffffff166108fc839081150290604051600060405180830381858888f19350505050158015610164573d6000803e3d6000fd5b503373ffffffffffffffffffffffffffffffffffffffff167fdf273cb619d95419a9cd0ec88123a0538c85064229baa6363788f743fff90deb83426040516101ad929190610456565b60405180910390a25050565b60008054906101000a900473ffffffffffffffffffffffffffffffffffffffff1673ffffffffffffffffffffffffffffffffffffffff163373ffffffffffffffffffffffffffffffffffffffff1614610247576040517f08c379a000000000000000000000000000000000000000000000000000000000815260040161023e906104f1565b60405180910390fd5b60008054906101000a900473ffffffffffffffffffffffffffffffffffffffff1673ffffffffffffffffffffffffffffffffffffffff166108fc479081150290604051600060405180830381858888f193505050501580156102ad573d6000803e3d6000fd5b50565b6000819050919050565b6102c3816102b0565b82525050565b60006020820190506102de60008301846102ba565b92915050565b600080fd5b6102f2816102b0565b81146102fd57600080fd5b50565b60008135905061030f816102e9565b92915050565b600073ffffffffffffffffffffffffffffffffffffffff82169050919050565b600061034082610315565b9050919050565b61035081610335565b811461035b57600080fd5b50565b60008135905061036d81610347565b92915050565b6000806040838503121561038a576103896102e4565b5b600061039885828601610300565b92505060206103a98582860161035e565b9150509250929050565b600082825260208201905092915050565b7f496e73756666696369656e742062616c616e636520696e20666175636574206660008201527f6f72207769746864726177616c20726571756573740000000000000000000000602082015250565b60006104206035836103b3565b915061042b826103c4565b604082019050919050565b6000602082019050818103600083015261044f81610413565b9050919050565b600060408201905061046b60008301856102ba565b61047860208301846102ba565b9392505050565b7f4f6e6c792074686520636f6e7472616374206f776e65722063616e2063616c6c60008201527f20746869732066756e6374696f6e000000000000000000000000000000000000602082015250565b60006104db602e836103b3565b91506104e68261047f565b604082019050919050565b6000602082019050818103600083015261050a816104ce565b905091905056fea2646970667358221220d9c7e5271491204d2253355f16bb7268273b8de80aa1660927fdf3c367ce11ba64736f6c63430008130033",
  "immutableReferences": {},
  "source": "// SPDX-License-Identifier: CC-BY-SA-4.0\n\n// Version of Solidity compiler this program was written for\npragma solidity ^0.8.4;\n\ncontract Owned {\n    address payable owner;\n\n    // Contract constructor: set owner\n    constructor() {\n        owner = payable(msg.sender);\n    }\n\n    // Access control modifier\n    modifier onlyOwner() {\n        require(\n            msg.sender == owner,\n            \"Only the contract owner can call this function\"\n        );\n        _;\n    }\n}\n\ncontract Mortal is Owned {\n    // Contract destructor\n    function destroy() public onlyOwner {\n        // selfdestruct(owner);\n        payable(owner).transfer(address(this).balance);\n    }\n}\n\ncontract Faucet is Mortal {\n    event Withdrawal(address indexed to, uint256 amount, uint256 timestamp);\n    event Deposit(address indexed from, uint256 amount);\n\n    // Accept any incoming amount\n    receive() external payable {\n        emit Deposit(msg.sender, msg.value);\n    }\n\n    // Give out ether to anyone who asks\n    function withdraw(uint256 withdraw_amount, address recipiant) public {\n        // Limit withdrawal amount\n        require(withdraw_amount <= 0.1 ether);\n\n        require(\n            address(this).balance >= withdraw_amount,\n            \"Insufficient balance in faucet for withdrawal request\"\n        );\n\n        // Send the amount to the address that requested it\n        payable(recipiant).transfer(withdraw_amount);\n\n        emit Withdrawal(msg.sender, withdraw_amount, block.timestamp);\n    }\n}\n",
  "sourcePath": "/home/efficacy38/Tmp/vue_learn/block-chain-learn/truffle/contracts/Faucet.sol",
  "compiler": {
    "name": "solc",
    "version": "0.8.19+commit.7dd6d404.Emscripten.clang"
  },
  "schemaVersion": "3.4.13",
  "updatedAt": "2023-04-05T05:49:15.988Z",
  "networkType": "ethereum",
  "devdoc": {
    "kind": "dev",
    "methods": {},
    "version": 1
  },
  "userdoc": {
    "kind": "user",
    "methods": {},
    "version": 1
  }
}