{
  "contractName": "Faucet",
  "abi": [
    {
      "inputs": [],
      "name": "destroy",
      "outputs": [],
      "stateMutability": "nonpayable",
      "type": "function"
    },
    {
      "stateMutability": "payable",
      "type": "receive",
      "payable": true
    },
    {
      "inputs": [
        {
          "internalType": "uint256",
          "name": "withdraw_amount",
          "type": "uint256"
        },
        {
          "internalType": "address",
          "name": "recipiant",
          "type": "address"
        }
      ],
      "name": "withdraw",
      "outputs": [],
      "stateMutability": "nonpayable",
      "type": "function"
    }
  ],
  "bytecode": "0x608060405234801561001057600080fd5b50336000806101000a81548173ffffffffffffffffffffffffffffffffffffffff021916908373ffffffffffffffffffffffffffffffffffffffff160217905550610456806100606000396000f3fe60806040526004361061002c5760003560e01c8062f714ce1461003857806383197ef01461006157610033565b3661003357005b600080fd5b34801561004457600080fd5b5061005f600480360381019061005a91906102ab565b610078565b005b34801561006d57600080fd5b5061007661011b565b005b67016345785d8a000082111561008d57600080fd5b814710156100d0576040517f08c379a00000000000000000000000000000000000000000000000000000000081526004016100c79061036e565b60405180910390fd5b8073ffffffffffffffffffffffffffffffffffffffff166108fc839081150290604051600060405180830381858888f19350505050158015610116573d6000803e3d6000fd5b505050565b60008054906101000a900473ffffffffffffffffffffffffffffffffffffffff1673ffffffffffffffffffffffffffffffffffffffff163373ffffffffffffffffffffffffffffffffffffffff16146101a9576040517f08c379a00000000000000000000000000000000000000000000000000000000081526004016101a090610400565b60405180910390fd5b60008054906101000a900473ffffffffffffffffffffffffffffffffffffffff1673ffffffffffffffffffffffffffffffffffffffff166108fc479081150290604051600060405180830381858888f1935050505015801561020f573d6000803e3d6000fd5b50565b600080fd5b6000819050919050565b61022a81610217565b811461023557600080fd5b50565b60008135905061024781610221565b92915050565b600073ffffffffffffffffffffffffffffffffffffffff82169050919050565b60006102788261024d565b9050919050565b6102888161026d565b811461029357600080fd5b50565b6000813590506102a58161027f565b92915050565b600080604083850312156102c2576102c1610212565b5b60006102d085828601610238565b92505060206102e185828601610296565b9150509250929050565b600082825260208201905092915050565b7f496e73756666696369656e742062616c616e636520696e20666175636574206660008201527f6f72207769746864726177616c20726571756573740000000000000000000000602082015250565b60006103586035836102eb565b9150610363826102fc565b604082019050919050565b600060208201905081810360008301526103878161034b565b9050919050565b7f4f6e6c792074686520636f6e7472616374206f776e65722063616e2063616c6c60008201527f20746869732066756e6374696f6e000000000000000000000000000000000000602082015250565b60006103ea602e836102eb565b91506103f58261038e565b604082019050919050565b60006020820190508181036000830152610419816103dd565b905091905056fea2646970667358221220b59b6b0f32435c1d5a57b5b9211258c7ebc5899b75f07a6c1047431e9f6fdaf264736f6c63430008130033",
  "immutableReferences": {},
  "source": "// SPDX-License-Identifier: CC-BY-SA-4.0\n\n// Version of Solidity compiler this program was written for\npragma solidity ^0.8.4;\n\ncontract Owned {\n    address payable owner;\n\n    // Contract constructor: set owner\n    constructor() {\n        owner = payable(msg.sender);\n    }\n\n    // Access control modifier\n    modifier onlyOwner {\n        require(msg.sender == owner, \"Only the contract owner can call this function\");\n        _;\n    }\n}\n\ncontract Mortal is Owned {\n    // Contract destructor\n    function destroy() public onlyOwner {\n        // selfdestruct(owner);\n        payable(owner).transfer(address(this).balance);\n    }\n}\n\ncontract Faucet is Mortal {\n    // Accept any incoming amount\n    receive() external payable {}\n\n    // Give out ether to anyone who asks\n    function withdraw(uint withdraw_amount, address recipiant) public {\n        // Limit withdrawal amount\n        require(withdraw_amount <= 0.1 ether);\n\n        require(\n            address(this).balance >= withdraw_amount,\n            \"Insufficient balance in faucet for withdrawal request\"\n        );\n\n        // Send the amount to the address that requested it\n        payable(recipiant).transfer(withdraw_amount);\n    }\n}\n\n",
  "sourcePath": "/home/efficacy38/Tmp/vue_learn/block-chain-learn/truffle/contracts/Faucet.sol",
  "compiler": {
    "name": "solc",
    "version": "0.8.19+commit.7dd6d404.Emscripten.clang"
  },
  "schemaVersion": "3.4.13",
  "updatedAt": "2023-04-03T13:48:03.233Z",
  "networkType": "ethereum",
  "devdoc": {
    "kind": "dev",
    "methods": {},
    "version": 1
  },
  "userdoc": {
    "kind": "user",
    "methods": {},
    "version": 1
  }
}