{
  "contractName": "JHTokenDEX",
  "abi": [
    {
      "inputs": [
        {
          "internalType": "address",
          "name": "JHTokenDEXAddress",
          "type": "address"
        }
      ],
      "stateMutability": "nonpayable",
      "type": "constructor"
    },
    {
      "anonymous": false,
      "inputs": [
        {
          "indexed": false,
          "internalType": "uint256",
          "name": "amount",
          "type": "uint256"
        }
      ],
      "name": "Bought",
      "type": "event"
    },
    {
      "anonymous": false,
      "inputs": [
        {
          "indexed": false,
          "internalType": "uint256",
          "name": "amount",
          "type": "uint256"
        }
      ],
      "name": "Sold",
      "type": "event"
    },
    {
      "inputs": [],
      "name": "JHTokenStore",
      "outputs": [
        {
          "internalType": "contract JHToken",
          "name": "",
          "type": "address"
        }
      ],
      "stateMutability": "view",
      "type": "function",
      "constant": true
    },
    {
      "inputs": [],
      "name": "destroy",
      "outputs": [],
      "stateMutability": "nonpayable",
      "type": "function"
    },
    {
      "stateMutability": "payable",
      "type": "receive",
      "payable": true
    },
    {
      "inputs": [],
      "name": "buy",
      "outputs": [],
      "stateMutability": "payable",
      "type": "function",
      "payable": true
    },
    {
      "inputs": [
        {
          "internalType": "uint256",
          "name": "amount",
          "type": "uint256"
        }
      ],
      "name": "approveToSell",
      "outputs": [],
      "stateMutability": "nonpayable",
      "type": "function"
    },
    {
      "inputs": [
        {
          "internalType": "uint256",
          "name": "amount",
          "type": "uint256"
        }
      ],
      "name": "sell",
      "outputs": [],
      "stateMutability": "nonpayable",
      "type": "function"
    }
  ],
  "bytecode": "0x608060405234801561001057600080fd5b50604051610d7c380380610d7c8339818101604052810190610032919061011c565b336000806101000a81548173ffffffffffffffffffffffffffffffffffffffff021916908373ffffffffffffffffffffffffffffffffffffffff16021790555080600160006101000a81548173ffffffffffffffffffffffffffffffffffffffff021916908373ffffffffffffffffffffffffffffffffffffffff16021790555050610149565b600080fd5b600073ffffffffffffffffffffffffffffffffffffffff82169050919050565b60006100e9826100be565b9050919050565b6100f9816100de565b811461010457600080fd5b50565b600081519050610116816100f0565b92915050565b600060208284031215610132576101316100b9565b5b600061014084828501610107565b91505092915050565b610c24806101586000396000f3fe60806040526004361061004e5760003560e01c806311beb3e71461005a57806383197ef014610085578063a6f2ae3a1461009c578063b58637e8146100a6578063e4849b32146100cf57610055565b3661005557005b600080fd5b34801561006657600080fd5b5061006f6100f8565b60405161007c919061075c565b60405180910390f35b34801561009157600080fd5b5061009a61011e565b005b6100a46101e5565b005b3480156100b257600080fd5b506100cd60048036038101906100c891906107b2565b6103ec565b005b3480156100db57600080fd5b506100f660048036038101906100f191906107b2565b610490565b005b600160009054906101000a900473ffffffffffffffffffffffffffffffffffffffff1681565b60008054906101000a900473ffffffffffffffffffffffffffffffffffffffff1673ffffffffffffffffffffffffffffffffffffffff163373ffffffffffffffffffffffffffffffffffffffff16146101ac576040517f08c379a00000000000000000000000000000000000000000000000000000000081526004016101a390610862565b60405180910390fd5b60008054906101000a900473ffffffffffffffffffffffffffffffffffffffff1673ffffffffffffffffffffffffffffffffffffffff16ff5b60003490506000600160009054906101000a900473ffffffffffffffffffffffffffffffffffffffff1673ffffffffffffffffffffffffffffffffffffffff166370a08231306040518263ffffffff1660e01b815260040161024791906108a3565b602060405180830381865afa158015610264573d6000803e3d6000fd5b505050506040513d601f19601f8201168201806040525081019061028891906108d3565b9050600082116102cd576040517f08c379a00000000000000000000000000000000000000000000000000000000081526004016102c49061094c565b60405180910390fd5b80821115610310576040517f08c379a0000000000000000000000000000000000000000000000000000000008152600401610307906109b8565b60405180910390fd5b600160009054906101000a900473ffffffffffffffffffffffffffffffffffffffff1673ffffffffffffffffffffffffffffffffffffffff1663a9059cbb33846040518363ffffffff1660e01b815260040161036d9291906109e7565b6020604051808303816000875af115801561038c573d6000803e3d6000fd5b505050506040513d601f19601f820116820180604052508101906103b09190610a48565b507f4e08ba899977cf7d4c2964bce71c6b9a7ef76ee5166a4c1249a1e08016e33ef1826040516103e09190610a75565b60405180910390a15050565b600160009054906101000a900473ffffffffffffffffffffffffffffffffffffffff1673ffffffffffffffffffffffffffffffffffffffff1663095ea7b330836040518363ffffffff1660e01b81526004016104499291906109e7565b6020604051808303816000875af1158015610468573d6000803e3d6000fd5b505050506040513d601f19601f8201168201806040525081019061048c9190610a48565b5050565b600081116104d3576040517f08c379a00000000000000000000000000000000000000000000000000000000081526004016104ca90610b02565b60405180910390fd5b6000600160009054906101000a900473ffffffffffffffffffffffffffffffffffffffff1673ffffffffffffffffffffffffffffffffffffffff1663dd62ed3e33306040518363ffffffff1660e01b8152600401610532929190610b22565b602060405180830381865afa15801561054f573d6000803e3d6000fd5b505050506040513d601f19601f8201168201806040525081019061057391906108d3565b9050818110156105b8576040517f08c379a00000000000000000000000000000000000000000000000000000000081526004016105af90610b97565b60405180910390fd5b600160009054906101000a900473ffffffffffffffffffffffffffffffffffffffff1673ffffffffffffffffffffffffffffffffffffffff166323b872dd3330856040518463ffffffff1660e01b815260040161061793929190610bb7565b6020604051808303816000875af1158015610636573d6000803e3d6000fd5b505050506040513d601f19601f8201168201806040525081019061065a9190610a48565b503373ffffffffffffffffffffffffffffffffffffffff166108fc839081150290604051600060405180830381858888f193505050501580156106a1573d6000803e3d6000fd5b507f92f64ca637d023f354075a4be751b169c1a8a9ccb6d33cdd0cb3520543995727826040516106d19190610a75565b60405180910390a15050565b600073ffffffffffffffffffffffffffffffffffffffff82169050919050565b6000819050919050565b600061072261071d610718846106dd565b6106fd565b6106dd565b9050919050565b600061073482610707565b9050919050565b600061074682610729565b9050919050565b6107568161073b565b82525050565b6000602082019050610771600083018461074d565b92915050565b600080fd5b6000819050919050565b61078f8161077c565b811461079a57600080fd5b50565b6000813590506107ac81610786565b92915050565b6000602082840312156107c8576107c7610777565b5b60006107d68482850161079d565b91505092915050565b600082825260208201905092915050565b7f4f6e6c792074686520636f6e7472616374206f776e65722063616e2063616c6c60008201527f20746869732066756e6374696f6e000000000000000000000000000000000000602082015250565b600061084c602e836107df565b9150610857826107f0565b604082019050919050565b6000602082019050818103600083015261087b8161083f565b9050919050565b600061088d826106dd565b9050919050565b61089d81610882565b82525050565b60006020820190506108b86000830184610894565b92915050565b6000815190506108cd81610786565b92915050565b6000602082840312156108e9576108e8610777565b5b60006108f7848285016108be565b91505092915050565b7f596f75206e65656420746f2073656e6420736f6d652065746865720000000000600082015250565b6000610936601b836107df565b915061094182610900565b602082019050919050565b6000602082019050818103600083015261096581610929565b9050919050565b7f4e6f7420656e6f75676820746f6b656e7320696e207468652072657365727665600082015250565b60006109a26020836107df565b91506109ad8261096c565b602082019050919050565b600060208201905081810360008301526109d181610995565b9050919050565b6109e18161077c565b82525050565b60006040820190506109fc6000830185610894565b610a0960208301846109d8565b9392505050565b60008115159050919050565b610a2581610a10565b8114610a3057600080fd5b50565b600081519050610a4281610a1c565b92915050565b600060208284031215610a5e57610a5d610777565b5b6000610a6c84828501610a33565b91505092915050565b6000602082019050610a8a60008301846109d8565b92915050565b7f596f75206e65656420746f2073656c6c206174206c6561737420736f6d65207460008201527f6f6b656e73000000000000000000000000000000000000000000000000000000602082015250565b6000610aec6025836107df565b9150610af782610a90565b604082019050919050565b60006020820190508181036000830152610b1b81610adf565b9050919050565b6000604082019050610b376000830185610894565b610b446020830184610894565b9392505050565b7f436865636b2074686520746f6b656e20616c6c6f77616e636500000000000000600082015250565b6000610b816019836107df565b9150610b8c82610b4b565b602082019050919050565b60006020820190508181036000830152610bb081610b74565b9050919050565b6000606082019050610bcc6000830186610894565b610bd96020830185610894565b610be660408301846109d8565b94935050505056fea2646970667358221220ef6a63c0406ad77c13062a8e3d0d92cba57cd59a9240f225aae4a38eb900d97564736f6c63430008130033",
  "immutableReferences": {},
  "source": "// contracts/JHToken.sol\n// SPDX-License-Identifier: MIT\n\npragma solidity ^0.8.0;\n\nimport \"@openzeppelin/contracts/token/ERC20/ERC20.sol\";\nimport \"@openzeppelin/contracts/token/ERC20/extensions/ERC20Burnable.sol\";\nimport \"./Faucet.sol\";\n\ncontract JHToken is ERC20Burnable, Mortal {\n    // generate the initial\n    constructor() ERC20(\"JHToken\", \"JHT\") {\n        _mint(msg.sender, 700 * (10**decimals()));\n    }\n\n    function mint(uint256 mint_amount, address recipiant) public onlyOwner {\n        _mint(payable(recipiant), mint_amount);\n    }\n}\n\ncontract JHTokenDEX is Mortal {\n    // uint256 exchangeRate = 10;\n    JHToken public JHTokenStore;\n\n    event Bought(uint256 amount);\n    event Sold(uint256 amount);\n\n    constructor(address JHTokenDEXAddress) {\n        JHTokenStore = JHToken(JHTokenDEXAddress);\n    }\n\n    function buy() public payable {\n        uint256 amountTobuy = msg.value;\n        uint256 dexBalance = JHTokenStore.balanceOf(address(this));\n        require(amountTobuy > 0, \"You need to send some ether\");\n        require(amountTobuy <= dexBalance, \"Not enough tokens in the reserve\");\n        JHTokenStore.transfer(msg.sender, amountTobuy);\n        emit Bought(amountTobuy);\n    }\n\n    function approveToSell(uint256 amount) public {\n        JHTokenStore.approve(address(this), amount);\n        // emit approve to sell\n    }\n\n    function sell(uint256 amount) public {\n        require(amount > 0, \"You need to sell at least some tokens\");\n        uint256 allowance = JHTokenStore.allowance(msg.sender, address(this));\n        require(allowance >= amount, \"Check the token allowance\");\n        JHTokenStore.transferFrom(msg.sender, address(this), amount);\n        payable(msg.sender).transfer(amount);\n        emit Sold(amount);\n    }\n\n    receive() external payable {}\n}\n",
  "sourcePath": "/home/efficacy38/Tmp/Course/BlockChain/block-chain-test/truffle/contracts/JHToken.sol",
  "compiler": {
    "name": "solc",
    "version": "0.8.19+commit.7dd6d404.Emscripten.clang"
  },
  "schemaVersion": "3.4.13",
  "updatedAt": "2023-05-08T07:22:39.337Z",
  "networkType": "ethereum",
  "devdoc": {
    "kind": "dev",
    "methods": {},
    "version": 1
  },
  "userdoc": {
    "kind": "user",
    "methods": {},
    "version": 1
  }
}