{
  "contractName": "Mortal",
  "abi": [
    {
      "inputs": [],
      "name": "destroy",
      "outputs": [],
      "stateMutability": "nonpayable",
      "type": "function"
    }
  ],
  "bytecode": "0x608060405234801561001057600080fd5b50336000806101000a81548173ffffffffffffffffffffffffffffffffffffffff021916908373ffffffffffffffffffffffffffffffffffffffff1602179055506101da806100606000396000f3fe608060405234801561001057600080fd5b506004361061002b5760003560e01c806383197ef014610030575b600080fd5b61003861003a565b005b60008054906101000a900473ffffffffffffffffffffffffffffffffffffffff1673ffffffffffffffffffffffffffffffffffffffff163373ffffffffffffffffffffffffffffffffffffffff16146100c8576040517f08c379a00000000000000000000000000000000000000000000000000000000081526004016100bf90610184565b60405180910390fd5b60008054906101000a900473ffffffffffffffffffffffffffffffffffffffff1673ffffffffffffffffffffffffffffffffffffffff16ff5b600082825260208201905092915050565b7f4f6e6c792074686520636f6e7472616374206f776e65722063616e2063616c6c60008201527f20746869732066756e6374696f6e000000000000000000000000000000000000602082015250565b600061016e602e83610101565b915061017982610112565b604082019050919050565b6000602082019050818103600083015261019d81610161565b905091905056fea26469706673582212206f993c311a5595259c7e6d23a26ce894dd7bd9f0456cc0f6af2fbaf7c049496064736f6c63430008130033",
  "immutableReferences": {},
  "source": "// SPDX-License-Identifier: CC-BY-SA-4.0\n\n// Version of Solidity compiler this program was written for\npragma solidity ^0.8.4;\n\ncontract Owned {\n    address payable owner;\n\n    // Contract constructor: set owner\n    constructor() {\n        owner = payable(msg.sender);\n    }\n\n    // Access control modifier\n    modifier onlyOwner() {\n        require(\n            msg.sender == owner,\n            \"Only the contract owner can call this function\"\n        );\n        _;\n    }\n}\n\ncontract Mortal is Owned {\n    // Contract destructor\n    function destroy() public onlyOwner {\n        selfdestruct(owner);\n        // payable(owner).transfer(address(this).balance);\n    }\n}\n\ncontract Faucet is Mortal {\n    event Withdrawal(address indexed to, uint256 amount, uint256 timestamp);\n    event Deposit(address indexed from, uint256 amount);\n\n    // Accept any incoming amount\n    receive() external payable {\n        emit Deposit(msg.sender, msg.value);\n    }\n\n    // Give out ether to anyone who asks\n    function withdraw(uint256 withdraw_amount, address recipiant) public {\n        // Limit withdrawal amount\n        require(withdraw_amount <= 0.1 ether);\n\n        require(\n            address(this).balance >= withdraw_amount,\n            \"Insufficient balance in faucet for withdrawal request\"\n        );\n\n        // Send the amount to the address that requested it\n        payable(recipiant).transfer(withdraw_amount);\n\n        emit Withdrawal(msg.sender, withdraw_amount, block.timestamp);\n    }\n}\n",
  "sourcePath": "/home/efficacy38/Tmp/Course/BlockChain/block-chain-test/truffle/contracts/Faucet.sol",
  "compiler": {
    "name": "solc",
    "version": "0.8.19+commit.7dd6d404.Emscripten.clang"
  },
  "schemaVersion": "3.4.13",
  "updatedAt": "2023-06-14T16:37:52.209Z",
  "devdoc": {
    "kind": "dev",
    "methods": {},
    "version": 1
  },
  "userdoc": {
    "kind": "user",
    "methods": {},
    "version": 1
  }
}