{
  "contractName": "Mortal",
  "abi": [
    {
      "inputs": [],
      "name": "destroy",
      "outputs": [],
      "stateMutability": "nonpayable",
      "type": "function"
    }
  ],
  "bytecode": "0x608060405234801561001057600080fd5b50336000806101000a81548173ffffffffffffffffffffffffffffffffffffffff021916908373ffffffffffffffffffffffffffffffffffffffff16021790555061020a806100606000396000f3fe608060405234801561001057600080fd5b506004361061002b5760003560e01c806383197ef014610030575b600080fd5b61003861003a565b005b60008054906101000a900473ffffffffffffffffffffffffffffffffffffffff1673ffffffffffffffffffffffffffffffffffffffff163373ffffffffffffffffffffffffffffffffffffffff16146100c8576040517f08c379a00000000000000000000000000000000000000000000000000000000081526004016100bf906101b4565b60405180910390fd5b60008054906101000a900473ffffffffffffffffffffffffffffffffffffffff1673ffffffffffffffffffffffffffffffffffffffff166108fc479081150290604051600060405180830381858888f1935050505015801561012e573d6000803e3d6000fd5b50565b600082825260208201905092915050565b7f4f6e6c792074686520636f6e7472616374206f776e65722063616e2063616c6c60008201527f20746869732066756e6374696f6e000000000000000000000000000000000000602082015250565b600061019e602e83610131565b91506101a982610142565b604082019050919050565b600060208201905081810360008301526101cd81610191565b905091905056fea2646970667358221220b0616d13c80dbd7eb3230fe651f06691f974d8010a536d6e93e084d723ec67c864736f6c63430008130033",
  "immutableReferences": {},
  "source": "// SPDX-License-Identifier: CC-BY-SA-4.0\n\n// Version of Solidity compiler this program was written for\npragma solidity ^0.8.4;\n\ncontract Owned {\n    address payable owner;\n\n    // Contract constructor: set owner\n    constructor() {\n        owner = payable(msg.sender);\n    }\n\n    // Access control modifier\n    modifier onlyOwner {\n        require(msg.sender == owner, \"Only the contract owner can call this function\");\n        _;\n    }\n}\n\ncontract Mortal is Owned {\n    // Contract destructor\n    function destroy() public onlyOwner {\n        // selfdestruct(owner);\n        payable(owner).transfer(address(this).balance);\n    }\n}\n\ncontract Faucet is Mortal {\n    // Accept any incoming amount\n    receive() external payable {}\n\n    // Give out ether to anyone who asks\n    function withdraw(uint withdraw_amount, address recipiant) public {\n        // Limit withdrawal amount\n        require(withdraw_amount <= 0.1 ether);\n\n        require(\n            address(this).balance >= withdraw_amount,\n            \"Insufficient balance in faucet for withdrawal request\"\n        );\n\n        // Send the amount to the address that requested it\n        payable(recipiant).transfer(withdraw_amount);\n    }\n}\n\n",
  "sourcePath": "/home/efficacy38/Tmp/vue_learn/block-chain-learn/truffle/contracts/Faucet.sol",
  "compiler": {
    "name": "solc",
    "version": "0.8.19+commit.7dd6d404.Emscripten.clang"
  },
  "schemaVersion": "3.4.13",
  "updatedAt": "2023-04-03T13:41:10.679Z",
  "devdoc": {
    "kind": "dev",
    "methods": {},
    "version": 1
  },
  "userdoc": {
    "kind": "user",
    "methods": {},
    "version": 1
  }
}