{
  "contractName": "MyNFT",
  "abi": [
    {
      "inputs": [],
      "stateMutability": "nonpayable",
      "type": "constructor"
    },
    {
      "anonymous": false,
      "inputs": [
        {
          "indexed": true,
          "internalType": "address",
          "name": "owner",
          "type": "address"
        },
        {
          "indexed": true,
          "internalType": "address",
          "name": "approved",
          "type": "address"
        },
        {
          "indexed": true,
          "internalType": "uint256",
          "name": "tokenId",
          "type": "uint256"
        }
      ],
      "name": "Approval",
      "type": "event"
    },
    {
      "anonymous": false,
      "inputs": [
        {
          "indexed": true,
          "internalType": "address",
          "name": "owner",
          "type": "address"
        },
        {
          "indexed": true,
          "internalType": "address",
          "name": "operator",
          "type": "address"
        },
        {
          "indexed": false,
          "internalType": "bool",
          "name": "approved",
          "type": "bool"
        }
      ],
      "name": "ApprovalForAll",
      "type": "event"
    },
    {
      "anonymous": false,
      "inputs": [
        {
          "indexed": false,
          "internalType": "uint256",
          "name": "_fromTokenId",
          "type": "uint256"
        },
        {
          "indexed": false,
          "internalType": "uint256",
          "name": "_toTokenId",
          "type": "uint256"
        }
      ],
      "name": "BatchMetadataUpdate",
      "type": "event"
    },
    {
      "anonymous": false,
      "inputs": [
        {
          "indexed": false,
          "internalType": "uint256",
          "name": "_tokenId",
          "type": "uint256"
        }
      ],
      "name": "MetadataUpdate",
      "type": "event"
    },
    {
      "anonymous": false,
      "inputs": [
        {
          "indexed": true,
          "internalType": "address",
          "name": "previousOwner",
          "type": "address"
        },
        {
          "indexed": true,
          "internalType": "address",
          "name": "newOwner",
          "type": "address"
        }
      ],
      "name": "OwnershipTransferred",
      "type": "event"
    },
    {
      "anonymous": false,
      "inputs": [
        {
          "indexed": true,
          "internalType": "address",
          "name": "from",
          "type": "address"
        },
        {
          "indexed": true,
          "internalType": "address",
          "name": "to",
          "type": "address"
        },
        {
          "indexed": true,
          "internalType": "uint256",
          "name": "tokenId",
          "type": "uint256"
        }
      ],
      "name": "Transfer",
      "type": "event"
    },
    {
      "inputs": [
        {
          "internalType": "address",
          "name": "to",
          "type": "address"
        },
        {
          "internalType": "uint256",
          "name": "tokenId",
          "type": "uint256"
        }
      ],
      "name": "approve",
      "outputs": [],
      "stateMutability": "nonpayable",
      "type": "function"
    },
    {
      "inputs": [
        {
          "internalType": "address",
          "name": "owner",
          "type": "address"
        }
      ],
      "name": "balanceOf",
      "outputs": [
        {
          "internalType": "uint256",
          "name": "",
          "type": "uint256"
        }
      ],
      "stateMutability": "view",
      "type": "function",
      "constant": true
    },
    {
      "inputs": [
        {
          "internalType": "uint256",
          "name": "tokenId",
          "type": "uint256"
        }
      ],
      "name": "getApproved",
      "outputs": [
        {
          "internalType": "address",
          "name": "",
          "type": "address"
        }
      ],
      "stateMutability": "view",
      "type": "function",
      "constant": true
    },
    {
      "inputs": [
        {
          "internalType": "address",
          "name": "owner",
          "type": "address"
        },
        {
          "internalType": "address",
          "name": "operator",
          "type": "address"
        }
      ],
      "name": "isApprovedForAll",
      "outputs": [
        {
          "internalType": "bool",
          "name": "",
          "type": "bool"
        }
      ],
      "stateMutability": "view",
      "type": "function",
      "constant": true
    },
    {
      "inputs": [],
      "name": "name",
      "outputs": [
        {
          "internalType": "string",
          "name": "",
          "type": "string"
        }
      ],
      "stateMutability": "view",
      "type": "function",
      "constant": true
    },
    {
      "inputs": [],
      "name": "owner",
      "outputs": [
        {
          "internalType": "address",
          "name": "",
          "type": "address"
        }
      ],
      "stateMutability": "view",
      "type": "function",
      "constant": true
    },
    {
      "inputs": [
        {
          "internalType": "uint256",
          "name": "tokenId",
          "type": "uint256"
        }
      ],
      "name": "ownerOf",
      "outputs": [
        {
          "internalType": "address",
          "name": "",
          "type": "address"
        }
      ],
      "stateMutability": "view",
      "type": "function",
      "constant": true
    },
    {
      "inputs": [],
      "name": "renounceOwnership",
      "outputs": [],
      "stateMutability": "nonpayable",
      "type": "function"
    },
    {
      "inputs": [
        {
          "internalType": "address",
          "name": "from",
          "type": "address"
        },
        {
          "internalType": "address",
          "name": "to",
          "type": "address"
        },
        {
          "internalType": "uint256",
          "name": "tokenId",
          "type": "uint256"
        }
      ],
      "name": "safeTransferFrom",
      "outputs": [],
      "stateMutability": "nonpayable",
      "type": "function"
    },
    {
      "inputs": [
        {
          "internalType": "address",
          "name": "from",
          "type": "address"
        },
        {
          "internalType": "address",
          "name": "to",
          "type": "address"
        },
        {
          "internalType": "uint256",
          "name": "tokenId",
          "type": "uint256"
        },
        {
          "internalType": "bytes",
          "name": "data",
          "type": "bytes"
        }
      ],
      "name": "safeTransferFrom",
      "outputs": [],
      "stateMutability": "nonpayable",
      "type": "function"
    },
    {
      "inputs": [
        {
          "internalType": "address",
          "name": "operator",
          "type": "address"
        },
        {
          "internalType": "bool",
          "name": "approved",
          "type": "bool"
        }
      ],
      "name": "setApprovalForAll",
      "outputs": [],
      "stateMutability": "nonpayable",
      "type": "function"
    },
    {
      "inputs": [
        {
          "internalType": "bytes4",
          "name": "interfaceId",
          "type": "bytes4"
        }
      ],
      "name": "supportsInterface",
      "outputs": [
        {
          "internalType": "bool",
          "name": "",
          "type": "bool"
        }
      ],
      "stateMutability": "view",
      "type": "function",
      "constant": true
    },
    {
      "inputs": [],
      "name": "symbol",
      "outputs": [
        {
          "internalType": "string",
          "name": "",
          "type": "string"
        }
      ],
      "stateMutability": "view",
      "type": "function",
      "constant": true
    },
    {
      "inputs": [
        {
          "internalType": "uint256",
          "name": "tokenId",
          "type": "uint256"
        }
      ],
      "name": "tokenURI",
      "outputs": [
        {
          "internalType": "string",
          "name": "",
          "type": "string"
        }
      ],
      "stateMutability": "view",
      "type": "function",
      "constant": true
    },
    {
      "inputs": [
        {
          "internalType": "address",
          "name": "from",
          "type": "address"
        },
        {
          "internalType": "address",
          "name": "to",
          "type": "address"
        },
        {
          "internalType": "uint256",
          "name": "tokenId",
          "type": "uint256"
        }
      ],
      "name": "transferFrom",
      "outputs": [],
      "stateMutability": "nonpayable",
      "type": "function"
    },
    {
      "inputs": [
        {
          "internalType": "address",
          "name": "newOwner",
          "type": "address"
        }
      ],
      "name": "transferOwnership",
      "outputs": [],
      "stateMutability": "nonpayable",
      "type": "function"
    },
    {
      "inputs": [
        {
          "internalType": "address",
          "name": "recipient",
          "type": "address"
        },
        {
          "internalType": "string",
          "name": "tokenURI",
          "type": "string"
        }
      ],
      "name": "mintNFT",
      "outputs": [
        {
          "internalType": "uint256",
          "name": "",
          "type": "uint256"
        }
      ],
      "stateMutability": "nonpayable",
      "type": "function"
    }
  ],
  "bytecode": "0x60806040523480156200001157600080fd5b506040518060400160405280600581526020017f4d794e46540000000000000000000000000000000000000000000000000000008152506040518060400160405280600381526020017f4e4654000000000000000000000000000000000000000000000000000000000081525081600090816200008f919062000412565b508060019081620000a1919062000412565b505050620000c4620000b8620000ca60201b60201c565b620000d260201b60201c565b620004f9565b600033905090565b6000600760009054906101000a900473ffffffffffffffffffffffffffffffffffffffff16905081600760006101000a81548173ffffffffffffffffffffffffffffffffffffffff021916908373ffffffffffffffffffffffffffffffffffffffff1602179055508173ffffffffffffffffffffffffffffffffffffffff168173ffffffffffffffffffffffffffffffffffffffff167f8be0079c531659141344cd1fd0a4f28419497f9722a3daafe3b4186f6b6457e060405160405180910390a35050565b600081519050919050565b7f4e487b7100000000000000000000000000000000000000000000000000000000600052604160045260246000fd5b7f4e487b7100000000000000000000000000000000000000000000000000000000600052602260045260246000fd5b600060028204905060018216806200021a57607f821691505b60208210810362000230576200022f620001d2565b5b50919050565b60008190508160005260206000209050919050565b60006020601f8301049050919050565b600082821b905092915050565b6000600883026200029a7fffffffffffffffffffffffffffffffffffffffffffffffffffffffffffffffff826200025b565b620002a686836200025b565b95508019841693508086168417925050509392505050565b6000819050919050565b6000819050919050565b6000620002f3620002ed620002e784620002be565b620002c8565b620002be565b9050919050565b6000819050919050565b6200030f83620002d2565b620003276200031e82620002fa565b84845462000268565b825550505050565b600090565b6200033e6200032f565b6200034b81848462000304565b505050565b5b8181101562000373576200036760008262000334565b60018101905062000351565b5050565b601f821115620003c2576200038c8162000236565b62000397846200024b565b81016020851015620003a7578190505b620003bf620003b6856200024b565b83018262000350565b50505b505050565b600082821c905092915050565b6000620003e760001984600802620003c7565b1980831691505092915050565b6000620004028383620003d4565b9150826002028217905092915050565b6200041d8262000198565b67ffffffffffffffff811115620004395762000438620001a3565b5b62000445825462000201565b6200045282828562000377565b600060209050601f8311600181146200048a576000841562000475578287015190505b620004818582620003f4565b865550620004f1565b601f1984166200049a8662000236565b60005b82811015620004c4578489015182556001820191506020850194506020810190506200049d565b86831015620004e45784890151620004e0601f891682620003d4565b8355505b6001600288020188555050505b505050505050565b612e5080620005096000396000f3fe608060405234801561001057600080fd5b506004361061010b5760003560e01c8063715018a6116100a2578063b88d4fde11610071578063b88d4fde146102a4578063c87b56dd146102c0578063e985e9c5146102f0578063eacabe1414610320578063f2fde38b146103505761010b565b8063715018a6146102425780638da5cb5b1461024c57806395d89b411461026a578063a22cb465146102885761010b565b806323b872dd116100de57806323b872dd146101aa57806342842e0e146101c65780636352211e146101e257806370a08231146102125761010b565b806301ffc9a71461011057806306fdde0314610140578063081812fc1461015e578063095ea7b31461018e575b600080fd5b61012a60048036038101906101259190611c41565b61036c565b6040516101379190611c89565b60405180910390f35b6101486103cd565b6040516101559190611d34565b60405180910390f35b61017860048036038101906101739190611d8c565b61045f565b6040516101859190611dfa565b60405180910390f35b6101a860048036038101906101a39190611e41565b6104a5565b005b6101c460048036038101906101bf9190611e81565b6105bc565b005b6101e060048036038101906101db9190611e81565b61061c565b005b6101fc60048036038101906101f79190611d8c565b61063c565b6040516102099190611dfa565b60405180910390f35b61022c60048036038101906102279190611ed4565b6106c2565b6040516102399190611f10565b60405180910390f35b61024a610779565b005b61025461078d565b6040516102619190611dfa565b60405180910390f35b6102726107b7565b60405161027f9190611d34565b60405180910390f35b6102a2600480360381019061029d9190611f57565b610849565b005b6102be60048036038101906102b991906120cc565b61085f565b005b6102da60048036038101906102d59190611d8c565b6108c1565b6040516102e79190611d34565b60405180910390f35b61030a6004803603810190610305919061214f565b6109d3565b6040516103179190611c89565b60405180910390f35b61033a60048036038101906103359190612230565b610a67565b6040516103479190611f10565b60405180910390f35b61036a60048036038101906103659190611ed4565b610aa7565b005b6000634906490660e01b7bffffffffffffffffffffffffffffffffffffffffffffffffffffffff1916827bffffffffffffffffffffffffffffffffffffffffffffffffffffffff191614806103c657506103c582610b2a565b5b9050919050565b6060600080546103dc906122bb565b80601f0160208091040260200160405190810160405280929190818152602001828054610408906122bb565b80156104555780601f1061042a57610100808354040283529160200191610455565b820191906000526020600020905b81548152906001019060200180831161043857829003601f168201915b5050505050905090565b600061046a82610c0c565b6004600083815260200190815260200160002060009054906101000a900473ffffffffffffffffffffffffffffffffffffffff169050919050565b60006104b08261063c565b90508073ffffffffffffffffffffffffffffffffffffffff168373ffffffffffffffffffffffffffffffffffffffff1603610520576040517f08c379a00000000000000000000000000000000000000000000000000000000081526004016105179061235e565b60405180910390fd5b8073ffffffffffffffffffffffffffffffffffffffff1661053f610c57565b73ffffffffffffffffffffffffffffffffffffffff16148061056e575061056d81610568610c57565b6109d3565b5b6105ad576040517f08c379a00000000000000000000000000000000000000000000000000000000081526004016105a4906123f0565b60405180910390fd5b6105b78383610c5f565b505050565b6105cd6105c7610c57565b82610d18565b61060c576040517f08c379a000000000000000000000000000000000000000000000000000000000815260040161060390612482565b60405180910390fd5b610617838383610dad565b505050565b6106378383836040518060200160405280600081525061085f565b505050565b600080610648836110a6565b9050600073ffffffffffffffffffffffffffffffffffffffff168173ffffffffffffffffffffffffffffffffffffffff16036106b9576040517f08c379a00000000000000000000000000000000000000000000000000000000081526004016106b0906124ee565b60405180910390fd5b80915050919050565b60008073ffffffffffffffffffffffffffffffffffffffff168273ffffffffffffffffffffffffffffffffffffffff1603610732576040517f08c379a000000000000000000000000000000000000000000000000000000000815260040161072990612580565b60405180910390fd5b600360008373ffffffffffffffffffffffffffffffffffffffff1673ffffffffffffffffffffffffffffffffffffffff168152602001908152602001600020549050919050565b6107816110e3565b61078b6000611161565b565b6000600760009054906101000a900473ffffffffffffffffffffffffffffffffffffffff16905090565b6060600180546107c6906122bb565b80601f01602080910402602001604051908101604052809291908181526020018280546107f2906122bb565b801561083f5780601f106108145761010080835404028352916020019161083f565b820191906000526020600020905b81548152906001019060200180831161082257829003601f168201915b5050505050905090565b61085b610854610c57565b8383611227565b5050565b61087061086a610c57565b83610d18565b6108af576040517f08c379a00000000000000000000000000000000000000000000000000000000081526004016108a690612482565b60405180910390fd5b6108bb84848484611393565b50505050565b60606108cc82610c0c565b60006006600084815260200190815260200160002080546108ec906122bb565b80601f0160208091040260200160405190810160405280929190818152602001828054610918906122bb565b80156109655780601f1061093a57610100808354040283529160200191610965565b820191906000526020600020905b81548152906001019060200180831161094857829003601f168201915b5050505050905060006109766113ef565b9050600081510361098b5781925050506109ce565b6000825111156109c05780826040516020016109a89291906125dc565b604051602081830303815290604052925050506109ce565b6109c984611406565b925050505b919050565b6000600560008473ffffffffffffffffffffffffffffffffffffffff1673ffffffffffffffffffffffffffffffffffffffff16815260200190815260200160002060008373ffffffffffffffffffffffffffffffffffffffff1673ffffffffffffffffffffffffffffffffffffffff16815260200190815260200160002060009054906101000a900460ff16905092915050565b6000610a716110e3565b610a7b600861146e565b6000610a876008611484565b9050610a938482611492565b610a9d81846116af565b8091505092915050565b610aaf6110e3565b600073ffffffffffffffffffffffffffffffffffffffff168173ffffffffffffffffffffffffffffffffffffffff1603610b1e576040517f08c379a0000000000000000000000000000000000000000000000000000000008152600401610b1590612672565b60405180910390fd5b610b2781611161565b50565b60007f80ac58cd000000000000000000000000000000000000000000000000000000007bffffffffffffffffffffffffffffffffffffffffffffffffffffffff1916827bffffffffffffffffffffffffffffffffffffffffffffffffffffffff19161480610bf557507f5b5e139f000000000000000000000000000000000000000000000000000000007bffffffffffffffffffffffffffffffffffffffffffffffffffffffff1916827bffffffffffffffffffffffffffffffffffffffffffffffffffffffff1916145b80610c055750610c0482611753565b5b9050919050565b610c15816117bd565b610c54576040517f08c379a0000000000000000000000000000000000000000000000000000000008152600401610c4b906124ee565b60405180910390fd5b50565b600033905090565b816004600083815260200190815260200160002060006101000a81548173ffffffffffffffffffffffffffffffffffffffff021916908373ffffffffffffffffffffffffffffffffffffffff160217905550808273ffffffffffffffffffffffffffffffffffffffff16610cd28361063c565b73ffffffffffffffffffffffffffffffffffffffff167f8c5be1e5ebec7d5bd14f71427d1e84f3dd0314c0f7b2291e5b200ac8c7c3b92560405160405180910390a45050565b600080610d248361063c565b90508073ffffffffffffffffffffffffffffffffffffffff168473ffffffffffffffffffffffffffffffffffffffff161480610d665750610d6581856109d3565b5b80610da457508373ffffffffffffffffffffffffffffffffffffffff16610d8c8461045f565b73ffffffffffffffffffffffffffffffffffffffff16145b91505092915050565b8273ffffffffffffffffffffffffffffffffffffffff16610dcd8261063c565b73ffffffffffffffffffffffffffffffffffffffff1614610e23576040517f08c379a0000000000000000000000000000000000000000000000000000000008152600401610e1a90612704565b60405180910390fd5b600073ffffffffffffffffffffffffffffffffffffffff168273ffffffffffffffffffffffffffffffffffffffff1603610e92576040517f08c379a0000000000000000000000000000000000000000000000000000000008152600401610e8990612796565b60405180910390fd5b610e9f83838360016117fe565b8273ffffffffffffffffffffffffffffffffffffffff16610ebf8261063c565b73ffffffffffffffffffffffffffffffffffffffff1614610f15576040517f08c379a0000000000000000000000000000000000000000000000000000000008152600401610f0c90612704565b60405180910390fd5b6004600082815260200190815260200160002060006101000a81549073ffffffffffffffffffffffffffffffffffffffff02191690556001600360008573ffffffffffffffffffffffffffffffffffffffff1673ffffffffffffffffffffffffffffffffffffffff168152602001908152602001600020600082825403925050819055506001600360008473ffffffffffffffffffffffffffffffffffffffff1673ffffffffffffffffffffffffffffffffffffffff16815260200190815260200160002060008282540192505081905550816002600083815260200190815260200160002060006101000a81548173ffffffffffffffffffffffffffffffffffffffff021916908373ffffffffffffffffffffffffffffffffffffffff160217905550808273ffffffffffffffffffffffffffffffffffffffff168473ffffffffffffffffffffffffffffffffffffffff167fddf252ad1be2c89b69c2b068fc378daa952ba7f163c4a11628f55a4df523b3ef60405160405180910390a46110a18383836001611804565b505050565b60006002600083815260200190815260200160002060009054906101000a900473ffffffffffffffffffffffffffffffffffffffff169050919050565b6110eb610c57565b73ffffffffffffffffffffffffffffffffffffffff1661110961078d565b73ffffffffffffffffffffffffffffffffffffffff161461115f576040517f08c379a000000000000000000000000000000000000000000000000000000000815260040161115690612802565b60405180910390fd5b565b6000600760009054906101000a900473ffffffffffffffffffffffffffffffffffffffff16905081600760006101000a81548173ffffffffffffffffffffffffffffffffffffffff021916908373ffffffffffffffffffffffffffffffffffffffff1602179055508173ffffffffffffffffffffffffffffffffffffffff168173ffffffffffffffffffffffffffffffffffffffff167f8be0079c531659141344cd1fd0a4f28419497f9722a3daafe3b4186f6b6457e060405160405180910390a35050565b8173ffffffffffffffffffffffffffffffffffffffff168373ffffffffffffffffffffffffffffffffffffffff1603611295576040517f08c379a000000000000000000000000000000000000000000000000000000000815260040161128c9061286e565b60405180910390fd5b80600560008573ffffffffffffffffffffffffffffffffffffffff1673ffffffffffffffffffffffffffffffffffffffff16815260200190815260200160002060008473ffffffffffffffffffffffffffffffffffffffff1673ffffffffffffffffffffffffffffffffffffffff16815260200190815260200160002060006101000a81548160ff0219169083151502179055508173ffffffffffffffffffffffffffffffffffffffff168373ffffffffffffffffffffffffffffffffffffffff167f17307eab39ab6107e8899845ad3d59bd9653f200f220920489ca2b5937696c31836040516113869190611c89565b60405180910390a3505050565b61139e848484610dad565b6113aa8484848461180a565b6113e9576040517f08c379a00000000000000000000000000000000000000000000000000000000081526004016113e090612900565b60405180910390fd5b50505050565b606060405180602001604052806000815250905090565b606061141182610c0c565b600061141b6113ef565b9050600081511161143b5760405180602001604052806000815250611466565b8061144584611991565b6040516020016114569291906125dc565b6040516020818303038152906040525b915050919050565b6001816000016000828254019250508190555050565b600081600001549050919050565b600073ffffffffffffffffffffffffffffffffffffffff168273ffffffffffffffffffffffffffffffffffffffff1603611501576040517f08c379a00000000000000000000000000000000000000000000000000000000081526004016114f89061296c565b60405180910390fd5b61150a816117bd565b1561154a576040517f08c379a0000000000000000000000000000000000000000000000000000000008152600401611541906129d8565b60405180910390fd5b6115586000838360016117fe565b611561816117bd565b156115a1576040517f08c379a0000000000000000000000000000000000000000000000000000000008152600401611598906129d8565b60405180910390fd5b6001600360008473ffffffffffffffffffffffffffffffffffffffff1673ffffffffffffffffffffffffffffffffffffffff16815260200190815260200160002060008282540192505081905550816002600083815260200190815260200160002060006101000a81548173ffffffffffffffffffffffffffffffffffffffff021916908373ffffffffffffffffffffffffffffffffffffffff160217905550808273ffffffffffffffffffffffffffffffffffffffff16600073ffffffffffffffffffffffffffffffffffffffff167fddf252ad1be2c89b69c2b068fc378daa952ba7f163c4a11628f55a4df523b3ef60405160405180910390a46116ab600083836001611804565b5050565b6116b8826117bd565b6116f7576040517f08c379a00000000000000000000000000000000000000000000000000000000081526004016116ee90612a6a565b60405180910390fd5b806006600084815260200190815260200160002090816117179190612c36565b507ff8e1a15aba9398e019f0b49df1a4fde98ee17ae345cb5f6b5e2c27f5033e8ce7826040516117479190611f10565b60405180910390a15050565b60007f01ffc9a7000000000000000000000000000000000000000000000000000000007bffffffffffffffffffffffffffffffffffffffffffffffffffffffff1916827bffffffffffffffffffffffffffffffffffffffffffffffffffffffff1916149050919050565b60008073ffffffffffffffffffffffffffffffffffffffff166117df836110a6565b73ffffffffffffffffffffffffffffffffffffffff1614159050919050565b50505050565b50505050565b600061182b8473ffffffffffffffffffffffffffffffffffffffff16611a5f565b15611984578373ffffffffffffffffffffffffffffffffffffffff1663150b7a02611854610c57565b8786866040518563ffffffff1660e01b81526004016118769493929190612d5d565b6020604051808303816000875af19250505080156118b257506040513d601f19601f820116820180604052508101906118af9190612dbe565b60015b611934573d80600081146118e2576040519150601f19603f3d011682016040523d82523d6000602084013e6118e7565b606091505b50600081510361192c576040517f08c379a000000000000000000000000000000000000000000000000000000000815260040161192390612900565b60405180910390fd5b805181602001fd5b63150b7a0260e01b7bffffffffffffffffffffffffffffffffffffffffffffffffffffffff1916817bffffffffffffffffffffffffffffffffffffffffffffffffffffffff191614915050611989565b600190505b949350505050565b6060600060016119a084611a82565b01905060008167ffffffffffffffff8111156119bf576119be611fa1565b5b6040519080825280601f01601f1916602001820160405280156119f15781602001600182028036833780820191505090505b509050600082602001820190505b600115611a54578080600190039150507f3031323334353637383961626364656600000000000000000000000000000000600a86061a8153600a8581611a4857611a47612deb565b5b049450600085036119ff575b819350505050919050565b6000808273ffffffffffffffffffffffffffffffffffffffff163b119050919050565b600080600090507a184f03e93ff9f4daa797ed6e38ed64bf6a1f0100000000000000008310611ae0577a184f03e93ff9f4daa797ed6e38ed64bf6a1f0100000000000000008381611ad657611ad5612deb565b5b0492506040810190505b6d04ee2d6d415b85acef81000000008310611b1d576d04ee2d6d415b85acef81000000008381611b1357611b12612deb565b5b0492506020810190505b662386f26fc100008310611b4c57662386f26fc100008381611b4257611b41612deb565b5b0492506010810190505b6305f5e1008310611b75576305f5e1008381611b6b57611b6a612deb565b5b0492506008810190505b6127108310611b9a576127108381611b9057611b8f612deb565b5b0492506004810190505b60648310611bbd5760648381611bb357611bb2612deb565b5b0492506002810190505b600a8310611bcc576001810190505b80915050919050565b6000604051905090565b600080fd5b600080fd5b60007fffffffff0000000000000000000000000000000000000000000000000000000082169050919050565b611c1e81611be9565b8114611c2957600080fd5b50565b600081359050611c3b81611c15565b92915050565b600060208284031215611c5757611c56611bdf565b5b6000611c6584828501611c2c565b91505092915050565b60008115159050919050565b611c8381611c6e565b82525050565b6000602082019050611c9e6000830184611c7a565b92915050565b600081519050919050565b600082825260208201905092915050565b60005b83811015611cde578082015181840152602081019050611cc3565b60008484015250505050565b6000601f19601f8301169050919050565b6000611d0682611ca4565b611d108185611caf565b9350611d20818560208601611cc0565b611d2981611cea565b840191505092915050565b60006020820190508181036000830152611d4e8184611cfb565b905092915050565b6000819050919050565b611d6981611d56565b8114611d7457600080fd5b50565b600081359050611d8681611d60565b92915050565b600060208284031215611da257611da1611bdf565b5b6000611db084828501611d77565b91505092915050565b600073ffffffffffffffffffffffffffffffffffffffff82169050919050565b6000611de482611db9565b9050919050565b611df481611dd9565b82525050565b6000602082019050611e0f6000830184611deb565b92915050565b611e1e81611dd9565b8114611e2957600080fd5b50565b600081359050611e3b81611e15565b92915050565b60008060408385031215611e5857611e57611bdf565b5b6000611e6685828601611e2c565b9250506020611e7785828601611d77565b9150509250929050565b600080600060608486031215611e9a57611e99611bdf565b5b6000611ea886828701611e2c565b9350506020611eb986828701611e2c565b9250506040611eca86828701611d77565b9150509250925092565b600060208284031215611eea57611ee9611bdf565b5b6000611ef884828501611e2c565b91505092915050565b611f0a81611d56565b82525050565b6000602082019050611f256000830184611f01565b92915050565b611f3481611c6e565b8114611f3f57600080fd5b50565b600081359050611f5181611f2b565b92915050565b60008060408385031215611f6e57611f6d611bdf565b5b6000611f7c85828601611e2c565b9250506020611f8d85828601611f42565b9150509250929050565b600080fd5b600080fd5b7f4e487b7100000000000000000000000000000000000000000000000000000000600052604160045260246000fd5b611fd982611cea565b810181811067ffffffffffffffff82111715611ff857611ff7611fa1565b5b80604052505050565b600061200b611bd5565b90506120178282611fd0565b919050565b600067ffffffffffffffff82111561203757612036611fa1565b5b61204082611cea565b9050602081019050919050565b82818337600083830152505050565b600061206f61206a8461201c565b612001565b90508281526020810184848401111561208b5761208a611f9c565b5b61209684828561204d565b509392505050565b600082601f8301126120b3576120b2611f97565b5b81356120c384826020860161205c565b91505092915050565b600080600080608085870312156120e6576120e5611bdf565b5b60006120f487828801611e2c565b945050602061210587828801611e2c565b935050604061211687828801611d77565b925050606085013567ffffffffffffffff81111561213757612136611be4565b5b6121438782880161209e565b91505092959194509250565b6000806040838503121561216657612165611bdf565b5b600061217485828601611e2c565b925050602061218585828601611e2c565b9150509250929050565b600067ffffffffffffffff8211156121aa576121a9611fa1565b5b6121b382611cea565b9050602081019050919050565b60006121d36121ce8461218f565b612001565b9050828152602081018484840111156121ef576121ee611f9c565b5b6121fa84828561204d565b509392505050565b600082601f83011261221757612216611f97565b5b81356122278482602086016121c0565b91505092915050565b6000806040838503121561224757612246611bdf565b5b600061225585828601611e2c565b925050602083013567ffffffffffffffff81111561227657612275611be4565b5b61228285828601612202565b9150509250929050565b7f4e487b7100000000000000000000000000000000000000000000000000000000600052602260045260246000fd5b600060028204905060018216806122d357607f821691505b6020821081036122e6576122e561228c565b5b50919050565b7f4552433732313a20617070726f76616c20746f2063757272656e74206f776e6560008201527f7200000000000000000000000000000000000000000000000000000000000000602082015250565b6000612348602183611caf565b9150612353826122ec565b604082019050919050565b600060208201905081810360008301526123778161233b565b9050919050565b7f4552433732313a20617070726f76652063616c6c6572206973206e6f7420746f60008201527f6b656e206f776e6572206f7220617070726f76656420666f7220616c6c000000602082015250565b60006123da603d83611caf565b91506123e58261237e565b604082019050919050565b60006020820190508181036000830152612409816123cd565b9050919050565b7f4552433732313a2063616c6c6572206973206e6f7420746f6b656e206f776e6560008201527f72206f7220617070726f76656400000000000000000000000000000000000000602082015250565b600061246c602d83611caf565b915061247782612410565b604082019050919050565b6000602082019050818103600083015261249b8161245f565b9050919050565b7f4552433732313a20696e76616c696420746f6b656e2049440000000000000000600082015250565b60006124d8601883611caf565b91506124e3826124a2565b602082019050919050565b60006020820190508181036000830152612507816124cb565b9050919050565b7f4552433732313a2061646472657373207a65726f206973206e6f74206120766160008201527f6c6964206f776e65720000000000000000000000000000000000000000000000602082015250565b600061256a602983611caf565b91506125758261250e565b604082019050919050565b600060208201905081810360008301526125998161255d565b9050919050565b600081905092915050565b60006125b682611ca4565b6125c081856125a0565b93506125d0818560208601611cc0565b80840191505092915050565b60006125e882856125ab565b91506125f482846125ab565b91508190509392505050565b7f4f776e61626c653a206e6577206f776e657220697320746865207a65726f206160008201527f6464726573730000000000000000000000000000000000000000000000000000602082015250565b600061265c602683611caf565b915061266782612600565b604082019050919050565b6000602082019050818103600083015261268b8161264f565b9050919050565b7f4552433732313a207472616e736665722066726f6d20696e636f72726563742060008201527f6f776e6572000000000000000000000000000000000000000000000000000000602082015250565b60006126ee602583611caf565b91506126f982612692565b604082019050919050565b6000602082019050818103600083015261271d816126e1565b9050919050565b7f4552433732313a207472616e7366657220746f20746865207a65726f2061646460008201527f7265737300000000000000000000000000000000000000000000000000000000602082015250565b6000612780602483611caf565b915061278b82612724565b604082019050919050565b600060208201905081810360008301526127af81612773565b9050919050565b7f4f776e61626c653a2063616c6c6572206973206e6f7420746865206f776e6572600082015250565b60006127ec602083611caf565b91506127f7826127b6565b602082019050919050565b6000602082019050818103600083015261281b816127df565b9050919050565b7f4552433732313a20617070726f766520746f2063616c6c657200000000000000600082015250565b6000612858601983611caf565b915061286382612822565b602082019050919050565b600060208201905081810360008301526128878161284b565b9050919050565b7f4552433732313a207472616e7366657220746f206e6f6e20455243373231526560008201527f63656976657220696d706c656d656e7465720000000000000000000000000000602082015250565b60006128ea603283611caf565b91506128f58261288e565b604082019050919050565b60006020820190508181036000830152612919816128dd565b9050919050565b7f4552433732313a206d696e7420746f20746865207a65726f2061646472657373600082015250565b6000612956602083611caf565b915061296182612920565b602082019050919050565b6000602082019050818103600083015261298581612949565b9050919050565b7f4552433732313a20746f6b656e20616c7265616479206d696e74656400000000600082015250565b60006129c2601c83611caf565b91506129cd8261298c565b602082019050919050565b600060208201905081810360008301526129f1816129b5565b9050919050565b7f45524337323155524953746f726167653a2055524920736574206f66206e6f6e60008201527f6578697374656e7420746f6b656e000000000000000000000000000000000000602082015250565b6000612a54602e83611caf565b9150612a5f826129f8565b604082019050919050565b60006020820190508181036000830152612a8381612a47565b9050919050565b60008190508160005260206000209050919050565b60006020601f8301049050919050565b600082821b905092915050565b600060088302612aec7fffffffffffffffffffffffffffffffffffffffffffffffffffffffffffffffff82612aaf565b612af68683612aaf565b95508019841693508086168417925050509392505050565b6000819050919050565b6000612b33612b2e612b2984611d56565b612b0e565b611d56565b9050919050565b6000819050919050565b612b4d83612b18565b612b61612b5982612b3a565b848454612abc565b825550505050565b600090565b612b76612b69565b612b81818484612b44565b505050565b5b81811015612ba557612b9a600082612b6e565b600181019050612b87565b5050565b601f821115612bea57612bbb81612a8a565b612bc484612a9f565b81016020851015612bd3578190505b612be7612bdf85612a9f565b830182612b86565b50505b505050565b600082821c905092915050565b6000612c0d60001984600802612bef565b1980831691505092915050565b6000612c268383612bfc565b9150826002028217905092915050565b612c3f82611ca4565b67ffffffffffffffff811115612c5857612c57611fa1565b5b612c6282546122bb565b612c6d828285612ba9565b600060209050601f831160018114612ca05760008415612c8e578287015190505b612c988582612c1a565b865550612d00565b601f198416612cae86612a8a565b60005b82811015612cd657848901518255600182019150602085019450602081019050612cb1565b86831015612cf35784890151612cef601f891682612bfc565b8355505b6001600288020188555050505b505050505050565b600081519050919050565b600082825260208201905092915050565b6000612d2f82612d08565b612d398185612d13565b9350612d49818560208601611cc0565b612d5281611cea565b840191505092915050565b6000608082019050612d726000830187611deb565b612d7f6020830186611deb565b612d8c6040830185611f01565b8181036060830152612d9e8184612d24565b905095945050505050565b600081519050612db881611c15565b92915050565b600060208284031215612dd457612dd3611bdf565b5b6000612de284828501612da9565b91505092915050565b7f4e487b7100000000000000000000000000000000000000000000000000000000600052601260045260246000fdfea264697066735822122017815baf549276654009dd365bc19d280353310ab21472d39cad13cb76b4364f64736f6c63430008130033",
  "immutableReferences": {},
  "source": "//Contract based on [https://docs.openzeppelin.com/contracts/3.x/erc721](https://docs.openzeppelin.com/contracts/3.x/erc721)\n// SPDX-License-Identifier: MIT\npragma solidity ^0.8.0;\n\nimport \"@openzeppelin/contracts/token/ERC721/ERC721.sol\";\nimport \"@openzeppelin/contracts/utils/Counters.sol\";\nimport \"@openzeppelin/contracts/access/Ownable.sol\";\nimport \"@openzeppelin/contracts/token/ERC721/extensions/ERC721URIStorage.sol\";\n\ncontract MyNFT is ERC721URIStorage, Ownable {\n    using Counters for Counters.Counter;\n    Counters.Counter private _tokenIds;\n\n    constructor() ERC721(\"MyNFT\", \"NFT\") {}\n\n    function mintNFT(address recipient, string memory tokenURI)\n        public\n        onlyOwner\n        returns (uint256)\n    {\n        _tokenIds.increment();\n\n        uint256 newItemId = _tokenIds.current();\n        _mint(recipient, newItemId);\n        _setTokenURI(newItemId, tokenURI);\n\n        return newItemId;\n    }\n}\n",
  "sourcePath": "/home/efficacy38/Tmp/Course/BlockChain/block-chain-test/truffle/contracts/MyNFT.sol",
  "compiler": {
    "name": "solc",
    "version": "0.8.19+commit.7dd6d404.Emscripten.clang"
  },
  "schemaVersion": "3.4.13",
  "updatedAt": "2023-06-14T16:37:54.139Z",
  "networkType": "ethereum",
  "devdoc": {
    "events": {
      "Approval(address,address,uint256)": {
        "details": "Emitted when `owner` enables `approved` to manage the `tokenId` token."
      },
      "ApprovalForAll(address,address,bool)": {
        "details": "Emitted when `owner` enables or disables (`approved`) `operator` to manage all of its assets."
      },
      "BatchMetadataUpdate(uint256,uint256)": {
        "details": "This event emits when the metadata of a range of tokens is changed. So that the third-party platforms such as NFT market could timely update the images and related attributes of the NFTs."
      },
      "MetadataUpdate(uint256)": {
        "details": "This event emits when the metadata of a token is changed. So that the third-party platforms such as NFT market could timely update the images and related attributes of the NFT."
      },
      "Transfer(address,address,uint256)": {
        "details": "Emitted when `tokenId` token is transferred from `from` to `to`."
      }
    },
    "kind": "dev",
    "methods": {
      "approve(address,uint256)": {
        "details": "See {IERC721-approve}."
      },
      "balanceOf(address)": {
        "details": "See {IERC721-balanceOf}."
      },
      "getApproved(uint256)": {
        "details": "See {IERC721-getApproved}."
      },
      "isApprovedForAll(address,address)": {
        "details": "See {IERC721-isApprovedForAll}."
      },
      "name()": {
        "details": "See {IERC721Metadata-name}."
      },
      "owner()": {
        "details": "Returns the address of the current owner."
      },
      "ownerOf(uint256)": {
        "details": "See {IERC721-ownerOf}."
      },
      "renounceOwnership()": {
        "details": "Leaves the contract without owner. It will not be possible to call `onlyOwner` functions. Can only be called by the current owner. NOTE: Renouncing ownership will leave the contract without an owner, thereby disabling any functionality that is only available to the owner."
      },
      "safeTransferFrom(address,address,uint256)": {
        "details": "See {IERC721-safeTransferFrom}."
      },
      "safeTransferFrom(address,address,uint256,bytes)": {
        "details": "See {IERC721-safeTransferFrom}."
      },
      "setApprovalForAll(address,bool)": {
        "details": "See {IERC721-setApprovalForAll}."
      },
      "supportsInterface(bytes4)": {
        "details": "See {IERC165-supportsInterface}"
      },
      "symbol()": {
        "details": "See {IERC721Metadata-symbol}."
      },
      "tokenURI(uint256)": {
        "details": "See {IERC721Metadata-tokenURI}."
      },
      "transferFrom(address,address,uint256)": {
        "details": "See {IERC721-transferFrom}."
      },
      "transferOwnership(address)": {
        "details": "Transfers ownership of the contract to a new account (`newOwner`). Can only be called by the current owner."
      }
    },
    "version": 1
  },
  "userdoc": {
    "kind": "user",
    "methods": {},
    "version": 1
  }
}