{
  "contractName": "Token",
  "abi": [
    {
      "inputs": [
        {
          "internalType": "address",
          "name": "_f",
          "type": "address"
        }
      ],
      "stateMutability": "nonpayable",
      "type": "constructor"
    },
    {
      "inputs": [],
      "name": "destroy",
      "outputs": [],
      "stateMutability": "nonpayable",
      "type": "function"
    }
  ],
  "bytecode": "0x608060405234801561001057600080fd5b5060405161044f38038061044f833981810160405281019061003291906101b2565b336000806101000a81548173ffffffffffffffffffffffffffffffffffffffff021916908373ffffffffffffffffffffffffffffffffffffffff16021790555080600160006101000a81548173ffffffffffffffffffffffffffffffffffffffff021916908373ffffffffffffffffffffffffffffffffffffffff160217905550600160009054906101000a900473ffffffffffffffffffffffffffffffffffffffff1673ffffffffffffffffffffffffffffffffffffffff1662f714ce67016345785d8a0000306040518363ffffffff1660e01b815260040161011792919061023d565b600060405180830381600087803b15801561013157600080fd5b505af1158015610145573d6000803e3d6000fd5b5050505050610266565b600080fd5b600073ffffffffffffffffffffffffffffffffffffffff82169050919050565b600061017f82610154565b9050919050565b61018f81610174565b811461019a57600080fd5b50565b6000815190506101ac81610186565b92915050565b6000602082840312156101c8576101c761014f565b5b60006101d68482850161019d565b91505092915050565b6000819050919050565b6000819050919050565b6000819050919050565b600061021861021361020e846101df565b6101f3565b6101e9565b9050919050565b610228816101fd565b82525050565b61023781610174565b82525050565b6000604082019050610252600083018561021f565b61025f602083018461022e565b9392505050565b6101da806102756000396000f3fe608060405234801561001057600080fd5b506004361061002b5760003560e01c806383197ef014610030575b600080fd5b61003861003a565b005b60008054906101000a900473ffffffffffffffffffffffffffffffffffffffff1673ffffffffffffffffffffffffffffffffffffffff163373ffffffffffffffffffffffffffffffffffffffff16146100c8576040517f08c379a00000000000000000000000000000000000000000000000000000000081526004016100bf90610184565b60405180910390fd5b60008054906101000a900473ffffffffffffffffffffffffffffffffffffffff1673ffffffffffffffffffffffffffffffffffffffff16ff5b600082825260208201905092915050565b7f4f6e6c792074686520636f6e7472616374206f776e65722063616e2063616c6c60008201527f20746869732066756e6374696f6e000000000000000000000000000000000000602082015250565b600061016e602e83610101565b915061017982610112565b604082019050919050565b6000602082019050818103600083015261019d81610161565b905091905056fea2646970667358221220f0c990381ba7825d326fe33d0124985b5168589b4e0f37013219e30b34774c5f64736f6c63430008130033",
  "immutableReferences": {},
  "source": "// SPDX-License-Identifier: CC-BY-SA-4.0\n\n// Version of Solidity compiler this program was written for\npragma solidity ^0.8.4;\n\nimport {Faucet, Mortal} from \"./Faucet.sol\";\n\ncontract Token is Mortal {\n    Faucet _faucet;\n\n    constructor(address _f) {\n        _faucet = Faucet(payable(_f));\n        // transfer to current contract\n        _faucet.withdraw(0.1 ether, address(this));\n    }\n}\n",
  "sourcePath": "/home/efficacy38/Tmp/Course/BlockChain/block-chain-test/truffle/contracts/Token.sol",
  "compiler": {
    "name": "solc",
    "version": "0.8.19+commit.7dd6d404.Emscripten.clang"
  },
  "schemaVersion": "3.4.13",
  "updatedAt": "2023-05-08T07:22:39.316Z",
  "networkType": "ethereum",
  "devdoc": {
    "kind": "dev",
    "methods": {},
    "version": 1
  },
  "userdoc": {
    "kind": "user",
    "methods": {},
    "version": 1
  }
}